{"contracts/GovernanceFactory.sol":{"GovernanceFactory":{"abi":[{"anonymous":false,"inputs":[{"indexed":true,"internalType":"uint256","name":"index","type":"uint256"},{"indexed":true,"internalType":"address","name":"spaceAddress","type":"address"},{"indexed":true,"internalType":"address","name":"owner","type":"address"},{"indexed":false,"internalType":"string","name":"communityId","type":"string"}],"name":"CommunityCreated","type":"event"},{"inputs":[{"internalType":"uint256","name":"","type":"uint256"}],"name":"communities","outputs":[{"internalType":"address","name":"spaceAddress","type":"address"},{"internalType":"address","name":"owner","type":"address"},{"internalType":"string","name":"communityId","type":"string"},{"internalType":"uint256","name":"createdAt","type":"uint256"}],"stateMutability":"view","type":"function"},{"inputs":[],"name":"communityCount","outputs":[{"internalType":"uint256","name":"","type":"uint256"}],"stateMutability":"view","type":"function"},{"inputs":[{"internalType":"string","name":"communityId","type":"string"},{"internalType":"uint256","name":"quorumPercent","type":"uint256"},{"internalType":"uint256","name":"voteDurationSecs","type":"uint256"}],"name":"createCommunity","outputs":[{"internalType":"address","name":"","type":"address"}],"stateMutability":"nonpayable","type":"function"},{"inputs":[{"internalType":"string","name":"communityId","type":"string"}],"name":"getSpaceAddress","outputs":[{"internalType":"address","name":"","type":"address"}],"stateMutability":"view","type":"function"},{"inputs":[{"internalType":"string","name":"","type":"string"}],"name":"spaceByIdStr","outputs":[{"internalType":"address","name":"","type":"address"}],"stateMutability":"view","type":"function"}],"evm":{"bytecode":{"linkReferences":{},"object":"608060405234801561001057600080fd5b50612483806100206000396000f3fe60806040523480156200001157600080fd5b50600436106200005e5760003560e01c8063278018fa1462000063578063a3e534241462000097578063aee8461314620000ce578063deabf27414620000e0578063e590b56a14620000f7575b600080fd5b6200007a62000074366004620005a7565b62000120565b6040516001600160a01b0390911681526020015b60405180910390f35b6200007a620000a836600462000603565b80516020818301810180516002825292820191909301209152546001600160a01b031681565b6000546040519081526020016200008e565b6200007a620000f1366004620006be565b62000157565b6200010e6200010836600462000713565b62000485565b6040516200008e94939291906200072d565b60006002838360405162000136929190620007a1565b908152604051908190036020019020546001600160a01b0316905092915050565b600083620001ac5760405162461bcd60e51b815260206004820152601a60248201527f466163746f72793a20656d70747920636f6d6d756e697479496400000000000060448201526064015b60405180910390fd5b60006001600160a01b031660028686604051620001cb929190620007a1565b908152604051908190036020019020546001600160a01b031614620002335760405162461bcd60e51b815260206004820152601b60248201527f466163746f72793a20616c7265616479207265676973746572656400000000006044820152606401620001a3565b60648311156200027e5760405162461bcd60e51b81526020600482015260156024820152740466163746f72793a2071756f72756d203e2031303605c1b6044820152606401620001a3565b603c821015620002d15760405162461bcd60e51b815260206004820152601b60248201527f466163746f72793a206475726174696f6e20746f6f2073686f727400000000006044820152606401620001a3565b60003386868686604051620002e6906200054d565b620002f6959493929190620007da565b604051809103906000f08015801562000313573d6000803e3d6000fd5b50905060008060008154620003289062000815565b91905081905590506040518060800160405280836001600160a01b03168152602001336001600160a01b0316815260200188888080601f0160208091040260200160405190810160405280939291908181526020018383808284376000920182905250938552505042602093840152508381526001808352604091829020845181546001600160a01b03199081166001600160a01b039283161783559486015192820180549095169216919091179092558201516002820190620003ed9082620008ce565b5060608201518160030155905050816002888860405162000410929190620007a1565b90815260405190819003602001812080546001600160a01b039384166001600160a01b0319909116179055339184169083907ff8c60c216538cc84d8f947d8476d5d79a27a0b3f7a087f7d2b60fe813c5e16469062000473908c908c906200099b565b60405180910390a45095945050505050565b60016020819052600091825260409091208054918101546002820180546001600160a01b03948516949092169291620004be906200083d565b80601f0160208091040260200160405190810160405280929190818152602001828054620004ec906200083d565b80156200053d5780601f1062000511576101008083540402835291602001916200053d565b820191906000526020600020905b8154815290600101906020018083116200051f57829003601f168201915b5050505050908060030154905084565b611a9480620009ba83390190565b60008083601f8401126200056e57600080fd5b50813567ffffffffffffffff8111156200058757600080fd5b602083019150836020828501011115620005a057600080fd5b9250929050565b60008060208385031215620005bb57600080fd5b823567ffffffffffffffff811115620005d357600080fd5b620005e1858286016200055b565b90969095509350505050565b634e487b7160e01b600052604160045260246000fd5b6000602082840312156200061657600080fd5b813567ffffffffffffffff808211156200062f57600080fd5b818401915084601f8301126200064457600080fd5b813581811115620006595762000659620005ed565b604051601f8201601f19908116603f01168101908382118183101715620006845762000684620005ed565b816040528281528760208487010111156200069e57600080fd5b826020860160208301376000928101602001929092525095945050505050565b60008060008060608587031215620006d557600080fd5b843567ffffffffffffffff811115620006ed57600080fd5b620006fb878288016200055b565b90989097506020870135966040013595509350505050565b6000602082840312156200072657600080fd5b5035919050565b600060018060a01b03808716835260208187166020850152608060408501528551915081608085015260005b82811015620007775786810182015185820160a00152810162000759565b5050600060a0828501015260a0601f19601f83011684010191505082606083015295945050505050565b8183823760009101908152919050565b81835281816020850137506000828201602090810191909152601f909101601f19169091010190565b6001600160a01b0386168152608060208201819052600090620008019083018688620007b1565b604083019490945250606001529392505050565b6000600182016200083657634e487b7160e01b600052601160045260246000fd5b5060010190565b600181811c908216806200085257607f821691505b6020821081036200087357634e487b7160e01b600052602260045260246000fd5b50919050565b601f821115620008c9576000816000526020600020601f850160051c81016020861015620008a45750805b601f850160051c820191505b81811015620008c557828155600101620008b0565b5050505b505050565b815167ffffffffffffffff811115620008eb57620008eb620005ed565b6200090381620008fc84546200083d565b8462000879565b602080601f8311600181146200093b5760008415620009225750858301515b600019600386901b1c1916600185901b178555620008c5565b600085815260208120601f198616915b828110156200096c578886015182559484019460019091019084016200094b565b50858210156200098b5787850151600019600388901b60f8161c191681555b5050505050600190811b01905550565b602081526000620009b1602083018486620007b1565b94935050505056fe60806040523480156200001157600080fd5b5060405162001a9438038062001a94833981016040819052620000349162000116565b60648211156200008a5760405162461bcd60e51b815260206004820152601d60248201527f476f7665726e616e636553706163653a2071756f72756d203e20313030000000604482015260640160405180910390fd5b600080546001600160a01b0319166001600160a01b0386161790556001620000b38482620002ad565b50600291909155600355506001600160a01b031660009081526007602090815260408083208054600160ff1991821681179092556008909352922080549091168217905560095562000379565b634e487b7160e01b600052604160045260246000fd5b600080600080608085870312156200012d57600080fd5b84516001600160a01b03811681146200014557600080fd5b602086810151919550906001600160401b03808211156200016557600080fd5b818801915088601f8301126200017a57600080fd5b8151818111156200018f576200018f62000100565b604051601f8201601f19908116603f01168101908382118183101715620001ba57620001ba62000100565b816040528281528b86848701011115620001d357600080fd5b600093505b82841015620001f75784840186015181850187015292850192620001d8565b6000928101909501919091525050506040860151606090960151949790965092505050565b600181811c908216806200023157607f821691505b6020821081036200025257634e487b7160e01b600052602260045260246000fd5b50919050565b601f821115620002a8576000816000526020600020601f850160051c81016020861015620002835750805b601f850160051c820191505b81811015620002a4578281556001016200028f565b5050505b505050565b81516001600160401b03811115620002c957620002c962000100565b620002e181620002da84546200021c565b8462000258565b602080601f831160018114620003195760008415620003005750858301515b600019600386901b1c1916600185901b178555620002a4565b600085815260208120601f198616915b828110156200034a5788860151825594840194600190910190840162000329565b5085821015620003695787850151600019600388901b60f8161c191681555b5050505050600190811b01905550565b61170b80620003896000396000f3fe608060405234801561001057600080fd5b50600436106101165760003560e01c80637f50861a116100a2578063bc3f931f11610071578063bc3f931f1461026c578063c7f758a81461028c578063d23254b4146102ac578063da35c664146102da578063f81cbd26146102e257600080fd5b80637f50861a146102115780638da5cb5b14610226578063943e821614610251578063b688a3631461026457600080fd5b806311aee380116100e957806311aee380146101a857806322e2e12d146101bf578063429b62e5146101d257806366dd7bed146101f557806370480275146101fe57600080fd5b8063013cf08b1461011b5780630386a0161461014d57806308ae4b0c146101625780630b1ca49a14610195575b600080fd5b61012e610129366004611103565b6102eb565b6040516101449a999897969594939291906111a3565b60405180910390f35b61016061015b366004611103565b6103d3565b005b610185610170366004611233565b60076020526000908152604090205460ff1681565b6040519015158152602001610144565b6101606101a3366004611233565b6105c4565b6101b160095481565b604051908152602001610144565b6101b16101cd366004611255565b61074e565b6101856101e0366004611233565b60086020526000908152604090205460ff1681565b6101b160035481565b61016061020c366004611233565b6109c9565b610219610ac1565b60405161014491906112d4565b600054610239906001600160a01b031681565b6040516001600160a01b039091168152602001610144565b61016061025f3660046112e7565b610b4f565b610160610ea2565b61027f61027a36600461131d565b610f14565b6040516101449190611349565b61029f61029a366004611103565b610f41565b604051610144919061135c565b61027f6102ba36600461131d565b600660209081526000928352604080842090915290825290205460ff1681565b6004546101b1565b6101b160025481565b60056020526000908152604090208054600182015460028301805492936001600160a01b039092169261031d906113ff565b80601f0160208091040260200160405190810160405280929190818152602001828054610349906113ff565b80156103965780601f1061036b57610100808354040283529160200191610396565b820191906000526020600020905b81548152906001019060200180831161037957829003601f168201915b5050506003840154600485015460058601546006870154600788015460089098015496979396929550909350919060ff808216916101009004168a565b6000818152600560205260408120805490910361040b5760405162461bcd60e51b815260040161040290611439565b60405180910390fd5b6008810154610100900460ff16156104655760405162461bcd60e51b815260206004820152601f60248201527f476f7665726e616e636553706163653a20616c726561647920636c6f736564006044820152606401610402565b806004015442116104b85760405162461bcd60e51b815260206004820152601d60248201527f476f7665726e616e636553706163653a207374696c6c206163746976650000006044820152606401610402565b60088101805461ff001916610100179055600781015460068201546005830154600092916104e591611492565b6104ef9190611492565b90506000606460025460095461050591906114a5565b61050f91906114bc565b905080821015610535576008830180546003919060ff19166001835b021790555061056a565b82600601548360050154111561055a576008830180546001919060ff1916828061052b565b60088301805460ff191660021790555b600883015460058401546006850154600786015460405188947fa6c824972b5b7a11c878ada39cf95ecab08f2938bbed74ac52e835ffe928248e946105b69460ff9092169390926114de565b60405180910390a250505050565b6000546001600160a01b03163314806105ec57503360009081526008602052604090205460ff165b6106385760405162461bcd60e51b815260206004820152601a60248201527f476f7665726e616e636553706163653a206e6f742061646d696e0000000000006044820152606401610402565b6000546001600160a01b03908116908216036106a25760405162461bcd60e51b8152602060048201526024808201527f476f7665726e616e636553706163653a2063616e6e6f742072656d6f7665206f6044820152633bb732b960e11b6064820152608401610402565b6001600160a01b03811660009081526007602052604090205460ff161561074b576001600160a01b0381166000908152600760209081526040808320805460ff1990811690915560089092529091208054909116905560095415610716576009805490600061071083611507565b91905055505b6040516001600160a01b038216907f6e76fb4c77256006d9c38ec7d82b45a8c8f3c27b1d6766fffc42dfb8de68449290600090a25b50565b3360009081526007602052604081205460ff1661077d5760405162461bcd60e51b81526004016104029061151e565b6000831561078b578361078d565b425b90506000831561079d57836107aa565b6003546107aa9083611492565b90508181116108075760405162461bcd60e51b8152602060048201526024808201527f476f7665726e616e636553706163653a20696e76616c69642074696d652077696044820152636e646f7760e01b6064820152608401610402565b600060046000815461081890611555565b9190508190559050604051806101400160405280828152602001336001600160a01b0316815260200189898080601f01602080910402602001604051908101604052809392919081815260200183838082843760009201829052509385525050506020820186905260408201859052606082018190526080820181905260a0820181905260c0909101908152600060209182018190528381526005825260409081902083518155918301516001830180546001600160a01b0319166001600160a01b0390921691909117905582015160028201906108f690826115d5565b50606082015181600301556080820151816004015560a0820151816005015560c0820151816006015560e082015181600701556101008201518160080160006101000a81548160ff0219169083600381111561095457610954611162565b02179055506101209190910151600890910180549115156101000261ff0019909216919091179055604051339082907f6c98a8c940418b35614f0cd02412d5c9606faff474cbb6cdd6640ba5d1a9f06b906109b6908c908c9089908990611695565b60405180910390a3979650505050505050565b6000546001600160a01b03163314806109f157503360009081526008602052604090205460ff165b610a3d5760405162461bcd60e51b815260206004820152601a60248201527f476f7665726e616e636553706163653a206e6f742061646d696e0000000000006044820152606401610402565b6001600160a01b03811660009081526007602052604090205460ff16610a755760405162461bcd60e51b81526004016104029061151e565b6001600160a01b038116600081815260086020526040808220805460ff19166001179055517f44d6d25963f097ad14f29f06854a01f575648a1ef82f30e562ccd3889717e3399190a250565b60018054610ace906113ff565b80601f0160208091040260200160405190810160405280929190818152602001828054610afa906113ff565b8015610b475780601f10610b1c57610100808354040283529160200191610b47565b820191906000526020600020905b815481529060010190602001808311610b2a57829003601f168201915b505050505081565b3360009081526007602052604090205460ff16610b7e5760405162461bcd60e51b81526004016104029061151e565b60018160ff1610158015610b96575060038160ff1611155b610be25760405162461bcd60e51b815260206004820152601f60248201527f476f7665726e616e636553706163653a20696e76616c6964206f7074696f6e006044820152606401610402565b60008281526005602052604081208054909103610c115760405162461bcd60e51b815260040161040290611439565b6008810154610100900460ff1615610c6b5760405162461bcd60e51b815260206004820152601e60248201527f476f7665726e616e636553706163653a20766f74696e6720636c6f73656400006044820152606401610402565b8060030154421015610cbf5760405162461bcd60e51b815260206004820152601c60248201527f476f7665726e616e636553706163653a206e6f742073746172746564000000006044820152606401610402565b8060040154421115610d135760405162461bcd60e51b815260206004820152601d60248201527f476f7665726e616e636553706163653a20766f74696e6720656e6465640000006044820152606401610402565b600083815260066020908152604080832033845290915281205460ff166003811115610d4157610d41611162565b14610d8e5760405162461bcd60e51b815260206004820152601e60248201527f476f7665726e616e636553706163653a20616c726561647920766f74656400006044820152606401610402565b60008260ff166003811115610da557610da5611162565b600085815260066020908152604080832033845290915290208054919250829160ff19166001836003811115610ddd57610ddd611162565b02179055506001816003811115610df657610df6611162565b03610e1757600582018054906000610e0d83611555565b9190505550610e5a565b6002816003811115610e2b57610e2b611162565b03610e4257600682018054906000610e0d83611555565b600782018054906000610e5483611555565b91905055505b336001600160a01b0316847feba4866100b822f0f391e610e7edfab790b9e8766c0012733c26b2f1858e8dd783604051610e949190611349565b60405180910390a350505050565b3360009081526007602052604090205460ff16610f1257336000908152600760205260408120805460ff191660011790556009805491610ee183611555565b909155505060405133907fb251eb052afc73ffd02ffe85ad79990a8b3fed60d76dbc2fa2fdd7123dffd91490600090a25b565b60008281526006602090815260408083206001600160a01b038516845290915290205460ff165b92915050565b610f49611096565b6000828152600560209081526040918290208251610140810184528154815260018201546001600160a01b0316928101929092526002810180549293919291840191610f94906113ff565b80601f0160208091040260200160405190810160405280929190818152602001828054610fc0906113ff565b801561100d5780601f10610fe25761010080835404028352916020019161100d565b820191906000526020600020905b815481529060010190602001808311610ff057829003601f168201915b50505091835250506003828101546020830152600483015460408301526005830154606083015260068301546080830152600783015460a0830152600883015460c09092019160ff169081111561106657611066611162565b600381111561107757611077611162565b815260089190910154610100900460ff16151560209091015292915050565b6040518061014001604052806000815260200160006001600160a01b03168152602001606081526020016000815260200160008152602001600081526020016000815260200160008152602001600060038111156110f6576110f6611162565b8152600060209091015290565b60006020828403121561111557600080fd5b5035919050565b6000815180845260005b8181101561114257602081850181015186830182015201611126565b506000602082860101526020601f19601f83011685010191505092915050565b634e487b7160e01b600052602160045260246000fd5b6004811061074b57634e487b7160e01b600052602160045260246000fd5b61119f81611178565b9052565b8a81526001600160a01b038a166020820152610140604082018190526000906111ce8382018c61111c565b9150508860608301528760808301528660a08301528560c08301528460e08301526111f884611178565b836101008301528215156101208301529b9a5050505050505050505050565b80356001600160a01b038116811461122e57600080fd5b919050565b60006020828403121561124557600080fd5b61124e82611217565b9392505050565b6000806000806060858703121561126b57600080fd5b843567ffffffffffffffff8082111561128357600080fd5b818701915087601f83011261129757600080fd5b8135818111156112a657600080fd5b8860208285010111156112b857600080fd5b6020928301999098509187013596604001359550909350505050565b60208152600061124e602083018461111c565b600080604083850312156112fa57600080fd5b82359150602083013560ff8116811461131257600080fd5b809150509250929050565b6000806040838503121561133057600080fd5b8235915061134060208401611217565b90509250929050565b6020810161135683611178565b91905290565b60208152815160208201526000602083015161138360408401826001600160a01b03169052565b5060408301516101408060608501526113a061016085018361111c565b915060608501516080850152608085015160a085015260a085015160c085015260c085015160e085015260e08501516101008181870152808701519150506101206113ed81870183611196565b90950151151593019290925250919050565b600181811c9082168061141357607f821691505b60208210810361143357634e487b7160e01b600052602260045260246000fd5b50919050565b60208082526023908201527f476f7665726e616e636553706163653a2070726f706f73616c206e6f7420666f6040820152621d5b9960ea1b606082015260800190565b634e487b7160e01b600052601160045260246000fd5b80820180821115610f3b57610f3b61147c565b8082028115828204841417610f3b57610f3b61147c565b6000826114d957634e487b7160e01b600052601260045260246000fd5b500490565b608081016114eb86611178565b9481526020810193909352604083019190915260609091015290565b6000816115165761151661147c565b506000190190565b6020808252601d908201527f476f7665726e616e636553706163653a206e6f742061206d656d626572000000604082015260600190565b6000600182016115675761156761147c565b5060010190565b634e487b7160e01b600052604160045260246000fd5b601f8211156115d0576000816000526020600020601f850160051c810160208610156115ad5750805b601f850160051c820191505b818110156115cc578281556001016115b9565b5050505b505050565b815167ffffffffffffffff8111156115ef576115ef61156e565b611603816115fd84546113ff565b84611584565b602080601f83116001811461163857600084156116205750858301515b600019600386901b1c1916600185901b1785556115cc565b600085815260208120601f198616915b8281101561166757888601518255948401946001909101908401611648565b50858210156116855787850151600019600388901b60f8161c191681555b5050505050600190811b01905550565b606081528360608201528385608083013760006080858301015260006080601f19601f87011683010190508360208301528260408301529594505050505056fea26469706673582212208be70e2ca29ea4d5a13f5d4dd50b74a83ca2db5e3d008370043cea725f1d55fc64736f6c63430008180033a2646970667358221220dfd54b7f9140f8550efffa23fb7ecb7ab76336a2cfa507b91b2bd3539deaf78564736f6c63430008180033","opcodes":"PUSH1 0x80 PUSH1 0x40 MSTORE CALLVALUE DUP1 ISZERO PUSH2 0x10 JUMPI PUSH1 0x0 DUP1 REVERT JUMPDEST POP PUSH2 0x2483 DUP1 PUSH2 0x20 PUSH1 0x0 CODECOPY PUSH1 0x0 RETURN INVALID PUSH1 0x80 PUSH1 0x40 MSTORE CALLVALUE DUP1 ISZERO PUSH3 0x11 JUMPI PUSH1 0x0 DUP1 REVERT JUMPDEST POP PUSH1 0x4 CALLDATASIZE LT PUSH3 0x5E JUMPI PUSH1 0x0 CALLDATALOAD PUSH1 0xE0 SHR DUP1 PUSH4 0x278018FA EQ PUSH3 0x63 JUMPI DUP1 PUSH4 0xA3E53424 EQ PUSH3 0x97 JUMPI DUP1 PUSH4 0xAEE84613 EQ PUSH3 0xCE JUMPI DUP1 PUSH4 0xDEABF274 EQ PUSH3 0xE0 JUMPI DUP1 PUSH4 0xE590B56A EQ PUSH3 0xF7 JUMPI JUMPDEST PUSH1 0x0 DUP1 REVERT JUMPDEST PUSH3 0x7A PUSH3 0x74 CALLDATASIZE PUSH1 0x4 PUSH3 0x5A7 JUMP JUMPDEST PUSH3 0x120 JUMP JUMPDEST PUSH1 0x40 MLOAD PUSH1 0x1 PUSH1 0x1 PUSH1 0xA0 SHL SUB SWAP1 SWAP2 AND DUP2 MSTORE PUSH1 0x20 ADD JUMPDEST PUSH1 0x40 MLOAD DUP1 SWAP2 SUB SWAP1 RETURN JUMPDEST PUSH3 0x7A PUSH3 0xA8 CALLDATASIZE PUSH1 0x4 PUSH3 0x603 JUMP JUMPDEST DUP1 MLOAD PUSH1 0x20 DUP2 DUP4 ADD DUP2 ADD DUP1 MLOAD PUSH1 0x2 DUP3 MSTORE SWAP3 DUP3 ADD SWAP2 SWAP1 SWAP4 ADD KECCAK256 SWAP2 MSTORE SLOAD PUSH1 0x1 PUSH1 0x1 PUSH1 0xA0 SHL SUB AND DUP2 JUMP JUMPDEST PUSH1 0x0 SLOAD PUSH1 0x40 MLOAD SWAP1 DUP2 MSTORE PUSH1 0x20 ADD PUSH3 0x8E JUMP JUMPDEST PUSH3 0x7A PUSH3 0xF1 CALLDATASIZE PUSH1 0x4 PUSH3 0x6BE JUMP JUMPDEST PUSH3 0x157 JUMP JUMPDEST PUSH3 0x10E PUSH3 0x108 CALLDATASIZE PUSH1 0x4 PUSH3 0x713 JUMP JUMPDEST PUSH3 0x485 JUMP JUMPDEST PUSH1 0x40 MLOAD PUSH3 0x8E SWAP5 SWAP4 SWAP3 SWAP2 SWAP1 PUSH3 0x72D JUMP JUMPDEST PUSH1 0x0 PUSH1 0x2 DUP4 DUP4 PUSH1 0x40 MLOAD PUSH3 0x136 SWAP3 SWAP2 SWAP1 PUSH3 0x7A1 JUMP JUMPDEST SWAP1 DUP2 MSTORE PUSH1 0x40 MLOAD SWAP1 DUP2 SWAP1 SUB PUSH1 0x20 ADD SWAP1 KECCAK256 SLOAD PUSH1 0x1 PUSH1 0x1 PUSH1 0xA0 SHL SUB AND SWAP1 POP SWAP3 SWAP2 POP POP JUMP JUMPDEST PUSH1 0x0 DUP4 PUSH3 0x1AC JUMPI PUSH1 0x40 MLOAD PUSH3 0x461BCD PUSH1 0xE5 SHL DUP2 MSTORE PUSH1 0x20 PUSH1 0x4 DUP3 ADD MSTORE PUSH1 0x1A PUSH1 0x24 DUP3 ADD MSTORE PUSH32 0x466163746F72793A20656D70747920636F6D6D756E6974794964000000000000 PUSH1 0x44 DUP3 ADD MSTORE PUSH1 0x64 ADD JUMPDEST PUSH1 0x40 MLOAD DUP1 SWAP2 SUB SWAP1 REVERT JUMPDEST PUSH1 0x0 PUSH1 0x1 PUSH1 0x1 PUSH1 0xA0 SHL SUB AND PUSH1 0x2 DUP7 DUP7 PUSH1 0x40 MLOAD PUSH3 0x1CB SWAP3 SWAP2 SWAP1 PUSH3 0x7A1 JUMP JUMPDEST SWAP1 DUP2 MSTORE PUSH1 0x40 MLOAD SWAP1 DUP2 SWAP1 SUB PUSH1 0x20 ADD SWAP1 KECCAK256 SLOAD PUSH1 0x1 PUSH1 0x1 PUSH1 0xA0 SHL SUB AND EQ PUSH3 0x233 JUMPI PUSH1 0x40 MLOAD PUSH3 0x461BCD PUSH1 0xE5 SHL DUP2 MSTORE PUSH1 0x20 PUSH1 0x4 DUP3 ADD MSTORE PUSH1 0x1B PUSH1 0x24 DUP3 ADD MSTORE PUSH32 0x466163746F72793A20616C726561647920726567697374657265640000000000 PUSH1 0x44 DUP3 ADD MSTORE PUSH1 0x64 ADD PUSH3 0x1A3 JUMP JUMPDEST PUSH1 0x64 DUP4 GT ISZERO PUSH3 0x27E JUMPI PUSH1 0x40 MLOAD PUSH3 0x461BCD PUSH1 0xE5 SHL DUP2 MSTORE PUSH1 0x20 PUSH1 0x4 DUP3 ADD MSTORE PUSH1 0x15 PUSH1 0x24 DUP3 ADD MSTORE PUSH21 0x466163746F72793A2071756F72756D203E2031303 PUSH1 0x5C SHL PUSH1 0x44 DUP3 ADD MSTORE PUSH1 0x64 ADD PUSH3 0x1A3 JUMP JUMPDEST PUSH1 0x3C DUP3 LT ISZERO PUSH3 0x2D1 JUMPI PUSH1 0x40 MLOAD PUSH3 0x461BCD PUSH1 0xE5 SHL DUP2 MSTORE PUSH1 0x20 PUSH1 0x4 DUP3 ADD MSTORE PUSH1 0x1B PUSH1 0x24 DUP3 ADD MSTORE PUSH32 0x466163746F72793A206475726174696F6E20746F6F2073686F72740000000000 PUSH1 0x44 DUP3 ADD MSTORE PUSH1 0x64 ADD PUSH3 0x1A3 JUMP JUMPDEST PUSH1 0x0 CALLER DUP7 DUP7 DUP7 DUP7 PUSH1 0x40 MLOAD PUSH3 0x2E6 SWAP1 PUSH3 0x54D JUMP JUMPDEST PUSH3 0x2F6 SWAP6 SWAP5 SWAP4 SWAP3 SWAP2 SWAP1 PUSH3 0x7DA JUMP JUMPDEST PUSH1 0x40 MLOAD DUP1 SWAP2 SUB SWAP1 PUSH1 0x0 CREATE DUP1 ISZERO DUP1 ISZERO PUSH3 0x313 JUMPI RETURNDATASIZE PUSH1 0x0 DUP1 RETURNDATACOPY RETURNDATASIZE PUSH1 0x0 REVERT JUMPDEST POP SWAP1 POP PUSH1 0x0 DUP1 PUSH1 0x0 DUP2 SLOAD PUSH3 0x328 SWAP1 PUSH3 0x815 JUMP JUMPDEST SWAP2 SWAP1 POP DUP2 SWAP1 SSTORE SWAP1 POP PUSH1 0x40 MLOAD DUP1 PUSH1 0x80 ADD PUSH1 0x40 MSTORE DUP1 DUP4 PUSH1 0x1 PUSH1 0x1 PUSH1 0xA0 SHL SUB AND DUP2 MSTORE PUSH1 0x20 ADD CALLER PUSH1 0x1 PUSH1 0x1 PUSH1 0xA0 SHL SUB AND DUP2 MSTORE PUSH1 0x20 ADD DUP9 DUP9 DUP1 DUP1 PUSH1 0x1F ADD PUSH1 0x20 DUP1 SWAP2 DIV MUL PUSH1 0x20 ADD PUSH1 0x40 MLOAD SWAP1 DUP2 ADD PUSH1 0x40 MSTORE DUP1 SWAP4 SWAP3 SWAP2 SWAP1 DUP2 DUP2 MSTORE PUSH1 0x20 ADD DUP4 DUP4 DUP1 DUP3 DUP5 CALLDATACOPY PUSH1 0x0 SWAP3 ADD DUP3 SWAP1 MSTORE POP SWAP4 DUP6 MSTORE POP POP TIMESTAMP PUSH1 0x20 SWAP4 DUP5 ADD MSTORE POP DUP4 DUP2 MSTORE PUSH1 0x1 DUP1 DUP4 MSTORE PUSH1 0x40 SWAP2 DUP3 SWAP1 KECCAK256 DUP5 MLOAD DUP2 SLOAD PUSH1 0x1 PUSH1 0x1 PUSH1 0xA0 SHL SUB NOT SWAP1 DUP2 AND PUSH1 0x1 PUSH1 0x1 PUSH1 0xA0 SHL SUB SWAP3 DUP4 AND OR DUP4 SSTORE SWAP5 DUP7 ADD MLOAD SWAP3 DUP3 ADD DUP1 SLOAD SWAP1 SWAP6 AND SWAP3 AND SWAP2 SWAP1 SWAP2 OR SWAP1 SWAP3 SSTORE DUP3 ADD MLOAD PUSH1 0x2 DUP3 ADD SWAP1 PUSH3 0x3ED SWAP1 DUP3 PUSH3 0x8CE JUMP JUMPDEST POP PUSH1 0x60 DUP3 ADD MLOAD DUP2 PUSH1 0x3 ADD SSTORE SWAP1 POP POP DUP2 PUSH1 0x2 DUP9 DUP9 PUSH1 0x40 MLOAD PUSH3 0x410 SWAP3 SWAP2 SWAP1 PUSH3 0x7A1 JUMP JUMPDEST SWAP1 DUP2 MSTORE PUSH1 0x40 MLOAD SWAP1 DUP2 SWAP1 SUB PUSH1 0x20 ADD DUP2 KECCAK256 DUP1 SLOAD PUSH1 0x1 PUSH1 0x1 PUSH1 0xA0 SHL SUB SWAP4 DUP5 AND PUSH1 0x1 PUSH1 0x1 PUSH1 0xA0 SHL SUB NOT SWAP1 SWAP2 AND OR SWAP1 SSTORE CALLER SWAP2 DUP5 AND SWAP1 DUP4 SWAP1 PUSH32 0xF8C60C216538CC84D8F947D8476D5D79A27A0B3F7A087F7D2B60FE813C5E1646 SWAP1 PUSH3 0x473 SWAP1 DUP13 SWAP1 DUP13 SWAP1 PUSH3 0x99B JUMP JUMPDEST PUSH1 0x40 MLOAD DUP1 SWAP2 SUB SWAP1 LOG4 POP SWAP6 SWAP5 POP POP POP POP POP JUMP JUMPDEST PUSH1 0x1 PUSH1 0x20 DUP2 SWAP1 MSTORE PUSH1 0x0 SWAP2 DUP3 MSTORE PUSH1 0x40 SWAP1 SWAP2 KECCAK256 DUP1 SLOAD SWAP2 DUP2 ADD SLOAD PUSH1 0x2 DUP3 ADD DUP1 SLOAD PUSH1 0x1 PUSH1 0x1 PUSH1 0xA0 SHL SUB SWAP5 DUP6 AND SWAP5 SWAP1 SWAP3 AND SWAP3 SWAP2 PUSH3 0x4BE SWAP1 PUSH3 0x83D JUMP JUMPDEST DUP1 PUSH1 0x1F ADD PUSH1 0x20 DUP1 SWAP2 DIV MUL PUSH1 0x20 ADD PUSH1 0x40 MLOAD SWAP1 DUP2 ADD PUSH1 0x40 MSTORE DUP1 SWAP3 SWAP2 SWAP1 DUP2 DUP2 MSTORE PUSH1 0x20 ADD DUP3 DUP1 SLOAD PUSH3 0x4EC SWAP1 PUSH3 0x83D JUMP JUMPDEST DUP1 ISZERO PUSH3 0x53D JUMPI DUP1 PUSH1 0x1F LT PUSH3 0x511 JUMPI PUSH2 0x100 DUP1 DUP4 SLOAD DIV MUL DUP4 MSTORE SWAP2 PUSH1 0x20 ADD SWAP2 PUSH3 0x53D JUMP JUMPDEST DUP3 ADD SWAP2 SWAP1 PUSH1 0x0 MSTORE PUSH1 0x20 PUSH1 0x0 KECCAK256 SWAP1 JUMPDEST DUP2 SLOAD DUP2 MSTORE SWAP1 PUSH1 0x1 ADD SWAP1 PUSH1 0x20 ADD DUP1 DUP4 GT PUSH3 0x51F JUMPI DUP3 SWAP1 SUB PUSH1 0x1F AND DUP3 ADD SWAP2 JUMPDEST POP POP POP POP POP SWAP1 DUP1 PUSH1 0x3 ADD SLOAD SWAP1 POP DUP5 JUMP JUMPDEST PUSH2 0x1A94 DUP1 PUSH3 0x9BA DUP4 CODECOPY ADD SWAP1 JUMP JUMPDEST PUSH1 0x0 DUP1 DUP4 PUSH1 0x1F DUP5 ADD SLT PUSH3 0x56E JUMPI PUSH1 0x0 DUP1 REVERT JUMPDEST POP DUP2 CALLDATALOAD PUSH8 0xFFFFFFFFFFFFFFFF DUP2 GT ISZERO PUSH3 0x587 JUMPI PUSH1 0x0 DUP1 REVERT JUMPDEST PUSH1 0x20 DUP4 ADD SWAP2 POP DUP4 PUSH1 0x20 DUP3 DUP6 ADD ADD GT ISZERO PUSH3 0x5A0 JUMPI PUSH1 0x0 DUP1 REVERT JUMPDEST SWAP3 POP SWAP3 SWAP1 POP JUMP JUMPDEST PUSH1 0x0 DUP1 PUSH1 0x20 DUP4 DUP6 SUB SLT ISZERO PUSH3 0x5BB JUMPI PUSH1 0x0 DUP1 REVERT JUMPDEST DUP3 CALLDATALOAD PUSH8 0xFFFFFFFFFFFFFFFF DUP2 GT ISZERO PUSH3 0x5D3 JUMPI PUSH1 0x0 DUP1 REVERT JUMPDEST PUSH3 0x5E1 DUP6 DUP3 DUP7 ADD PUSH3 0x55B JUMP JUMPDEST SWAP1 SWAP7 SWAP1 SWAP6 POP SWAP4 POP POP POP POP JUMP JUMPDEST PUSH4 0x4E487B71 PUSH1 0xE0 SHL PUSH1 0x0 MSTORE PUSH1 0x41 PUSH1 0x4 MSTORE PUSH1 0x24 PUSH1 0x0 REVERT JUMPDEST PUSH1 0x0 PUSH1 0x20 DUP3 DUP5 SUB SLT ISZERO PUSH3 0x616 JUMPI PUSH1 0x0 DUP1 REVERT JUMPDEST DUP2 CALLDATALOAD PUSH8 0xFFFFFFFFFFFFFFFF DUP1 DUP3 GT ISZERO PUSH3 0x62F JUMPI PUSH1 0x0 DUP1 REVERT JUMPDEST DUP2 DUP5 ADD SWAP2 POP DUP5 PUSH1 0x1F DUP4 ADD SLT PUSH3 0x644 JUMPI PUSH1 0x0 DUP1 REVERT JUMPDEST DUP2 CALLDATALOAD DUP2 DUP2 GT ISZERO PUSH3 0x659 JUMPI PUSH3 0x659 PUSH3 0x5ED JUMP JUMPDEST PUSH1 0x40 MLOAD PUSH1 0x1F DUP3 ADD PUSH1 0x1F NOT SWAP1 DUP2 AND PUSH1 0x3F ADD AND DUP2 ADD SWAP1 DUP4 DUP3 GT DUP2 DUP4 LT OR ISZERO PUSH3 0x684 JUMPI PUSH3 0x684 PUSH3 0x5ED JUMP JUMPDEST DUP2 PUSH1 0x40 MSTORE DUP3 DUP2 MSTORE DUP8 PUSH1 0x20 DUP5 DUP8 ADD ADD GT ISZERO PUSH3 0x69E JUMPI PUSH1 0x0 DUP1 REVERT JUMPDEST DUP3 PUSH1 0x20 DUP7 ADD PUSH1 0x20 DUP4 ADD CALLDATACOPY PUSH1 0x0 SWAP3 DUP2 ADD PUSH1 0x20 ADD SWAP3 SWAP1 SWAP3 MSTORE POP SWAP6 SWAP5 POP POP POP POP POP JUMP JUMPDEST PUSH1 0x0 DUP1 PUSH1 0x0 DUP1 PUSH1 0x60 DUP6 DUP8 SUB SLT ISZERO PUSH3 0x6D5 JUMPI PUSH1 0x0 DUP1 REVERT JUMPDEST DUP5 CALLDATALOAD PUSH8 0xFFFFFFFFFFFFFFFF DUP2 GT ISZERO PUSH3 0x6ED JUMPI PUSH1 0x0 DUP1 REVERT JUMPDEST PUSH3 0x6FB DUP8 DUP3 DUP9 ADD PUSH3 0x55B JUMP JUMPDEST SWAP1 SWAP9 SWAP1 SWAP8 POP PUSH1 0x20 DUP8 ADD CALLDATALOAD SWAP7 PUSH1 0x40 ADD CALLDATALOAD SWAP6 POP SWAP4 POP POP POP POP JUMP JUMPDEST PUSH1 0x0 PUSH1 0x20 DUP3 DUP5 SUB SLT ISZERO PUSH3 0x726 JUMPI PUSH1 0x0 DUP1 REVERT JUMPDEST POP CALLDATALOAD SWAP2 SWAP1 POP JUMP JUMPDEST PUSH1 0x0 PUSH1 0x1 DUP1 PUSH1 0xA0 SHL SUB DUP1 DUP8 AND DUP4 MSTORE PUSH1 0x20 DUP2 DUP8 AND PUSH1 0x20 DUP6 ADD MSTORE PUSH1 0x80 PUSH1 0x40 DUP6 ADD MSTORE DUP6 MLOAD SWAP2 POP DUP2 PUSH1 0x80 DUP6 ADD MSTORE PUSH1 0x0 JUMPDEST DUP3 DUP2 LT ISZERO PUSH3 0x777 JUMPI DUP7 DUP2 ADD DUP3 ADD MLOAD DUP6 DUP3 ADD PUSH1 0xA0 ADD MSTORE DUP2 ADD PUSH3 0x759 JUMP JUMPDEST POP POP PUSH1 0x0 PUSH1 0xA0 DUP3 DUP6 ADD ADD MSTORE PUSH1 0xA0 PUSH1 0x1F NOT PUSH1 0x1F DUP4 ADD AND DUP5 ADD ADD SWAP2 POP POP DUP3 PUSH1 0x60 DUP4 ADD MSTORE SWAP6 SWAP5 POP POP POP POP POP JUMP JUMPDEST DUP2 DUP4 DUP3 CALLDATACOPY PUSH1 0x0 SWAP2 ADD SWAP1 DUP2 MSTORE SWAP2 SWAP1 POP JUMP JUMPDEST DUP2 DUP4 MSTORE DUP2 DUP2 PUSH1 0x20 DUP6 ADD CALLDATACOPY POP PUSH1 0x0 DUP3 DUP3 ADD PUSH1 0x20 SWAP1 DUP2 ADD SWAP2 SWAP1 SWAP2 MSTORE PUSH1 0x1F SWAP1 SWAP2 ADD PUSH1 0x1F NOT AND SWAP1 SWAP2 ADD ADD SWAP1 JUMP JUMPDEST PUSH1 0x1 PUSH1 0x1 PUSH1 0xA0 SHL SUB DUP7 AND DUP2 MSTORE PUSH1 0x80 PUSH1 0x20 DUP3 ADD DUP2 SWAP1 MSTORE PUSH1 0x0 SWAP1 PUSH3 0x801 SWAP1 DUP4 ADD DUP7 DUP9 PUSH3 0x7B1 JUMP JUMPDEST PUSH1 0x40 DUP4 ADD SWAP5 SWAP1 SWAP5 MSTORE POP PUSH1 0x60 ADD MSTORE SWAP4 SWAP3 POP POP POP JUMP JUMPDEST PUSH1 0x0 PUSH1 0x1 DUP3 ADD PUSH3 0x836 JUMPI PUSH4 0x4E487B71 PUSH1 0xE0 SHL PUSH1 0x0 MSTORE PUSH1 0x11 PUSH1 0x4 MSTORE PUSH1 0x24 PUSH1 0x0 REVERT JUMPDEST POP PUSH1 0x1 ADD SWAP1 JUMP JUMPDEST PUSH1 0x1 DUP2 DUP2 SHR SWAP1 DUP3 AND DUP1 PUSH3 0x852 JUMPI PUSH1 0x7F DUP3 AND SWAP2 POP JUMPDEST PUSH1 0x20 DUP3 LT DUP2 SUB PUSH3 0x873 JUMPI PUSH4 0x4E487B71 PUSH1 0xE0 SHL PUSH1 0x0 MSTORE PUSH1 0x22 PUSH1 0x4 MSTORE PUSH1 0x24 PUSH1 0x0 REVERT JUMPDEST POP SWAP2 SWAP1 POP JUMP JUMPDEST PUSH1 0x1F DUP3 GT ISZERO PUSH3 0x8C9 JUMPI PUSH1 0x0 DUP2 PUSH1 0x0 MSTORE PUSH1 0x20 PUSH1 0x0 KECCAK256 PUSH1 0x1F DUP6 ADD PUSH1 0x5 SHR DUP2 ADD PUSH1 0x20 DUP7 LT ISZERO PUSH3 0x8A4 JUMPI POP DUP1 JUMPDEST PUSH1 0x1F DUP6 ADD PUSH1 0x5 SHR DUP3 ADD SWAP2 POP JUMPDEST DUP2 DUP2 LT ISZERO PUSH3 0x8C5 JUMPI DUP3 DUP2 SSTORE PUSH1 0x1 ADD PUSH3 0x8B0 JUMP JUMPDEST POP POP POP JUMPDEST POP POP POP JUMP JUMPDEST DUP2 MLOAD PUSH8 0xFFFFFFFFFFFFFFFF DUP2 GT ISZERO PUSH3 0x8EB JUMPI PUSH3 0x8EB PUSH3 0x5ED JUMP JUMPDEST PUSH3 0x903 DUP2 PUSH3 0x8FC DUP5 SLOAD PUSH3 0x83D JUMP JUMPDEST DUP5 PUSH3 0x879 JUMP JUMPDEST PUSH1 0x20 DUP1 PUSH1 0x1F DUP4 GT PUSH1 0x1 DUP2 EQ PUSH3 0x93B JUMPI PUSH1 0x0 DUP5 ISZERO PUSH3 0x922 JUMPI POP DUP6 DUP4 ADD MLOAD JUMPDEST PUSH1 0x0 NOT PUSH1 0x3 DUP7 SWAP1 SHL SHR NOT AND PUSH1 0x1 DUP6 SWAP1 SHL OR DUP6 SSTORE PUSH3 0x8C5 JUMP JUMPDEST PUSH1 0x0 DUP6 DUP2 MSTORE PUSH1 0x20 DUP2 KECCAK256 PUSH1 0x1F NOT DUP7 AND SWAP2 JUMPDEST DUP3 DUP2 LT ISZERO PUSH3 0x96C JUMPI DUP9 DUP7 ADD MLOAD DUP3 SSTORE SWAP5 DUP5 ADD SWAP5 PUSH1 0x1 SWAP1 SWAP2 ADD SWAP1 DUP5 ADD PUSH3 0x94B JUMP JUMPDEST POP DUP6 DUP3 LT ISZERO PUSH3 0x98B JUMPI DUP8 DUP6 ADD MLOAD PUSH1 0x0 NOT PUSH1 0x3 DUP9 SWAP1 SHL PUSH1 0xF8 AND SHR NOT AND DUP2 SSTORE JUMPDEST POP POP POP POP POP PUSH1 0x1 SWAP1 DUP2 SHL ADD SWAP1 SSTORE POP JUMP JUMPDEST PUSH1 0x20 DUP2 MSTORE PUSH1 0x0 PUSH3 0x9B1 PUSH1 0x20 DUP4 ADD DUP5 DUP7 PUSH3 0x7B1 JUMP JUMPDEST SWAP5 SWAP4 POP POP POP POP JUMP INVALID PUSH1 0x80 PUSH1 0x40 MSTORE CALLVALUE DUP1 ISZERO PUSH3 0x11 JUMPI PUSH1 0x0 DUP1 REVERT JUMPDEST POP PUSH1 0x40 MLOAD PUSH3 0x1A94 CODESIZE SUB DUP1 PUSH3 0x1A94 DUP4 CODECOPY DUP2 ADD PUSH1 0x40 DUP2 SWAP1 MSTORE PUSH3 0x34 SWAP2 PUSH3 0x116 JUMP JUMPDEST PUSH1 0x64 DUP3 GT ISZERO PUSH3 0x8A JUMPI PUSH1 0x40 MLOAD PUSH3 0x461BCD PUSH1 0xE5 SHL DUP2 MSTORE PUSH1 0x20 PUSH1 0x4 DUP3 ADD MSTORE PUSH1 0x1D PUSH1 0x24 DUP3 ADD MSTORE PUSH32 0x476F7665726E616E636553706163653A2071756F72756D203E20313030000000 PUSH1 0x44 DUP3 ADD MSTORE PUSH1 0x64 ADD PUSH1 0x40 MLOAD DUP1 SWAP2 SUB SWAP1 REVERT JUMPDEST PUSH1 0x0 DUP1 SLOAD PUSH1 0x1 PUSH1 0x1 PUSH1 0xA0 SHL SUB NOT AND PUSH1 0x1 PUSH1 0x1 PUSH1 0xA0 SHL SUB DUP7 AND OR SWAP1 SSTORE PUSH1 0x1 PUSH3 0xB3 DUP5 DUP3 PUSH3 0x2AD JUMP JUMPDEST POP PUSH1 0x2 SWAP2 SWAP1 SWAP2 SSTORE PUSH1 0x3 SSTORE POP PUSH1 0x1 PUSH1 0x1 PUSH1 0xA0 SHL SUB AND PUSH1 0x0 SWAP1 DUP2 MSTORE PUSH1 0x7 PUSH1 0x20 SWAP1 DUP2 MSTORE PUSH1 0x40 DUP1 DUP4 KECCAK256 DUP1 SLOAD PUSH1 0x1 PUSH1 0xFF NOT SWAP2 DUP3 AND DUP2 OR SWAP1 SWAP3 SSTORE PUSH1 0x8 SWAP1 SWAP4 MSTORE SWAP3 KECCAK256 DUP1 SLOAD SWAP1 SWAP2 AND DUP3 OR SWAP1 SSTORE PUSH1 0x9 SSTORE PUSH3 0x379 JUMP JUMPDEST PUSH4 0x4E487B71 PUSH1 0xE0 SHL PUSH1 0x0 MSTORE PUSH1 0x41 PUSH1 0x4 MSTORE PUSH1 0x24 PUSH1 0x0 REVERT JUMPDEST PUSH1 0x0 DUP1 PUSH1 0x0 DUP1 PUSH1 0x80 DUP6 DUP8 SUB SLT ISZERO PUSH3 0x12D JUMPI PUSH1 0x0 DUP1 REVERT JUMPDEST DUP5 MLOAD PUSH1 0x1 PUSH1 0x1 PUSH1 0xA0 SHL SUB DUP2 AND DUP2 EQ PUSH3 0x145 JUMPI PUSH1 0x0 DUP1 REVERT JUMPDEST PUSH1 0x20 DUP7 DUP2 ADD MLOAD SWAP2 SWAP6 POP SWAP1 PUSH1 0x1 PUSH1 0x1 PUSH1 0x40 SHL SUB DUP1 DUP3 GT ISZERO PUSH3 0x165 JUMPI PUSH1 0x0 DUP1 REVERT JUMPDEST DUP2 DUP9 ADD SWAP2 POP DUP9 PUSH1 0x1F DUP4 ADD SLT PUSH3 0x17A JUMPI PUSH1 0x0 DUP1 REVERT JUMPDEST DUP2 MLOAD DUP2 DUP2 GT ISZERO PUSH3 0x18F JUMPI PUSH3 0x18F PUSH3 0x100 JUMP JUMPDEST PUSH1 0x40 MLOAD PUSH1 0x1F DUP3 ADD PUSH1 0x1F NOT SWAP1 DUP2 AND PUSH1 0x3F ADD AND DUP2 ADD SWAP1 DUP4 DUP3 GT DUP2 DUP4 LT OR ISZERO PUSH3 0x1BA JUMPI PUSH3 0x1BA PUSH3 0x100 JUMP JUMPDEST DUP2 PUSH1 0x40 MSTORE DUP3 DUP2 MSTORE DUP12 DUP7 DUP5 DUP8 ADD ADD GT ISZERO PUSH3 0x1D3 JUMPI PUSH1 0x0 DUP1 REVERT JUMPDEST PUSH1 0x0 SWAP4 POP JUMPDEST DUP3 DUP5 LT ISZERO PUSH3 0x1F7 JUMPI DUP5 DUP5 ADD DUP7 ADD MLOAD DUP2 DUP6 ADD DUP8 ADD MSTORE SWAP3 DUP6 ADD SWAP3 PUSH3 0x1D8 JUMP JUMPDEST PUSH1 0x0 SWAP3 DUP2 ADD SWAP1 SWAP6 ADD SWAP2 SWAP1 SWAP2 MSTORE POP POP POP PUSH1 0x40 DUP7 ADD MLOAD PUSH1 0x60 SWAP1 SWAP7 ADD MLOAD SWAP5 SWAP8 SWAP1 SWAP7 POP SWAP3 POP POP POP JUMP JUMPDEST PUSH1 0x1 DUP2 DUP2 SHR SWAP1 DUP3 AND DUP1 PUSH3 0x231 JUMPI PUSH1 0x7F DUP3 AND SWAP2 POP JUMPDEST PUSH1 0x20 DUP3 LT DUP2 SUB PUSH3 0x252 JUMPI PUSH4 0x4E487B71 PUSH1 0xE0 SHL PUSH1 0x0 MSTORE PUSH1 0x22 PUSH1 0x4 MSTORE PUSH1 0x24 PUSH1 0x0 REVERT JUMPDEST POP SWAP2 SWAP1 POP JUMP JUMPDEST PUSH1 0x1F DUP3 GT ISZERO PUSH3 0x2A8 JUMPI PUSH1 0x0 DUP2 PUSH1 0x0 MSTORE PUSH1 0x20 PUSH1 0x0 KECCAK256 PUSH1 0x1F DUP6 ADD PUSH1 0x5 SHR DUP2 ADD PUSH1 0x20 DUP7 LT ISZERO PUSH3 0x283 JUMPI POP DUP1 JUMPDEST PUSH1 0x1F DUP6 ADD PUSH1 0x5 SHR DUP3 ADD SWAP2 POP JUMPDEST DUP2 DUP2 LT ISZERO PUSH3 0x2A4 JUMPI DUP3 DUP2 SSTORE PUSH1 0x1 ADD PUSH3 0x28F JUMP JUMPDEST POP POP POP JUMPDEST POP POP POP JUMP JUMPDEST DUP2 MLOAD PUSH1 0x1 PUSH1 0x1 PUSH1 0x40 SHL SUB DUP2 GT ISZERO PUSH3 0x2C9 JUMPI PUSH3 0x2C9 PUSH3 0x100 JUMP JUMPDEST PUSH3 0x2E1 DUP2 PUSH3 0x2DA DUP5 SLOAD PUSH3 0x21C JUMP JUMPDEST DUP5 PUSH3 0x258 JUMP JUMPDEST PUSH1 0x20 DUP1 PUSH1 0x1F DUP4 GT PUSH1 0x1 DUP2 EQ PUSH3 0x319 JUMPI PUSH1 0x0 DUP5 ISZERO PUSH3 0x300 JUMPI POP DUP6 DUP4 ADD MLOAD JUMPDEST PUSH1 0x0 NOT PUSH1 0x3 DUP7 SWAP1 SHL SHR NOT AND PUSH1 0x1 DUP6 SWAP1 SHL OR DUP6 SSTORE PUSH3 0x2A4 JUMP JUMPDEST PUSH1 0x0 DUP6 DUP2 MSTORE PUSH1 0x20 DUP2 KECCAK256 PUSH1 0x1F NOT DUP7 AND SWAP2 JUMPDEST DUP3 DUP2 LT ISZERO PUSH3 0x34A JUMPI DUP9 DUP7 ADD MLOAD DUP3 SSTORE SWAP5 DUP5 ADD SWAP5 PUSH1 0x1 SWAP1 SWAP2 ADD SWAP1 DUP5 ADD PUSH3 0x329 JUMP JUMPDEST POP DUP6 DUP3 LT ISZERO PUSH3 0x369 JUMPI DUP8 DUP6 ADD MLOAD PUSH1 0x0 NOT PUSH1 0x3 DUP9 SWAP1 SHL PUSH1 0xF8 AND SHR NOT AND DUP2 SSTORE JUMPDEST POP POP POP POP POP PUSH1 0x1 SWAP1 DUP2 SHL ADD SWAP1 SSTORE POP JUMP JUMPDEST PUSH2 0x170B DUP1 PUSH3 0x389 PUSH1 0x0 CODECOPY PUSH1 0x0 RETURN INVALID PUSH1 0x80 PUSH1 0x40 MSTORE CALLVALUE DUP1 ISZERO PUSH2 0x10 JUMPI PUSH1 0x0 DUP1 REVERT JUMPDEST POP PUSH1 0x4 CALLDATASIZE LT PUSH2 0x116 JUMPI PUSH1 0x0 CALLDATALOAD PUSH1 0xE0 SHR DUP1 PUSH4 0x7F50861A GT PUSH2 0xA2 JUMPI DUP1 PUSH4 0xBC3F931F GT PUSH2 0x71 JUMPI DUP1 PUSH4 0xBC3F931F EQ PUSH2 0x26C JUMPI DUP1 PUSH4 0xC7F758A8 EQ PUSH2 0x28C JUMPI DUP1 PUSH4 0xD23254B4 EQ PUSH2 0x2AC JUMPI DUP1 PUSH4 0xDA35C664 EQ PUSH2 0x2DA JUMPI DUP1 PUSH4 0xF81CBD26 EQ PUSH2 0x2E2 JUMPI PUSH1 0x0 DUP1 REVERT JUMPDEST DUP1 PUSH4 0x7F50861A EQ PUSH2 0x211 JUMPI DUP1 PUSH4 0x8DA5CB5B EQ PUSH2 0x226 JUMPI DUP1 PUSH4 0x943E8216 EQ PUSH2 0x251 JUMPI DUP1 PUSH4 0xB688A363 EQ PUSH2 0x264 JUMPI PUSH1 0x0 DUP1 REVERT JUMPDEST DUP1 PUSH4 0x11AEE380 GT PUSH2 0xE9 JUMPI DUP1 PUSH4 0x11AEE380 EQ PUSH2 0x1A8 JUMPI DUP1 PUSH4 0x22E2E12D EQ PUSH2 0x1BF JUMPI DUP1 PUSH4 0x429B62E5 EQ PUSH2 0x1D2 JUMPI DUP1 PUSH4 0x66DD7BED EQ PUSH2 0x1F5 JUMPI DUP1 PUSH4 0x70480275 EQ PUSH2 0x1FE JUMPI PUSH1 0x0 DUP1 REVERT JUMPDEST DUP1 PUSH4 0x13CF08B EQ PUSH2 0x11B JUMPI DUP1 PUSH4 0x386A016 EQ PUSH2 0x14D JUMPI DUP1 PUSH4 0x8AE4B0C EQ PUSH2 0x162 JUMPI DUP1 PUSH4 0xB1CA49A EQ PUSH2 0x195 JUMPI JUMPDEST PUSH1 0x0 DUP1 REVERT JUMPDEST PUSH2 0x12E PUSH2 0x129 CALLDATASIZE PUSH1 0x4 PUSH2 0x1103 JUMP JUMPDEST PUSH2 0x2EB JUMP JUMPDEST PUSH1 0x40 MLOAD PUSH2 0x144 SWAP11 SWAP10 SWAP9 SWAP8 SWAP7 SWAP6 SWAP5 SWAP4 SWAP3 SWAP2 SWAP1 PUSH2 0x11A3 JUMP JUMPDEST PUSH1 0x40 MLOAD DUP1 SWAP2 SUB SWAP1 RETURN JUMPDEST PUSH2 0x160 PUSH2 0x15B CALLDATASIZE PUSH1 0x4 PUSH2 0x1103 JUMP JUMPDEST PUSH2 0x3D3 JUMP JUMPDEST STOP JUMPDEST PUSH2 0x185 PUSH2 0x170 CALLDATASIZE PUSH1 0x4 PUSH2 0x1233 JUMP JUMPDEST PUSH1 0x7 PUSH1 0x20 MSTORE PUSH1 0x0 SWAP1 DUP2 MSTORE PUSH1 0x40 SWAP1 KECCAK256 SLOAD PUSH1 0xFF AND DUP2 JUMP JUMPDEST PUSH1 0x40 MLOAD SWAP1 ISZERO ISZERO DUP2 MSTORE PUSH1 0x20 ADD PUSH2 0x144 JUMP JUMPDEST PUSH2 0x160 PUSH2 0x1A3 CALLDATASIZE PUSH1 0x4 PUSH2 0x1233 JUMP JUMPDEST PUSH2 0x5C4 JUMP JUMPDEST PUSH2 0x1B1 PUSH1 0x9 SLOAD DUP2 JUMP JUMPDEST PUSH1 0x40 MLOAD SWAP1 DUP2 MSTORE PUSH1 0x20 ADD PUSH2 0x144 JUMP JUMPDEST PUSH2 0x1B1 PUSH2 0x1CD CALLDATASIZE PUSH1 0x4 PUSH2 0x1255 JUMP JUMPDEST PUSH2 0x74E JUMP JUMPDEST PUSH2 0x185 PUSH2 0x1E0 CALLDATASIZE PUSH1 0x4 PUSH2 0x1233 JUMP JUMPDEST PUSH1 0x8 PUSH1 0x20 MSTORE PUSH1 0x0 SWAP1 DUP2 MSTORE PUSH1 0x40 SWAP1 KECCAK256 SLOAD PUSH1 0xFF AND DUP2 JUMP JUMPDEST PUSH2 0x1B1 PUSH1 0x3 SLOAD DUP2 JUMP JUMPDEST PUSH2 0x160 PUSH2 0x20C CALLDATASIZE PUSH1 0x4 PUSH2 0x1233 JUMP JUMPDEST PUSH2 0x9C9 JUMP JUMPDEST PUSH2 0x219 PUSH2 0xAC1 JUMP JUMPDEST PUSH1 0x40 MLOAD PUSH2 0x144 SWAP2 SWAP1 PUSH2 0x12D4 JUMP JUMPDEST PUSH1 0x0 SLOAD PUSH2 0x239 SWAP1 PUSH1 0x1 PUSH1 0x1 PUSH1 0xA0 SHL SUB AND DUP2 JUMP JUMPDEST PUSH1 0x40 MLOAD PUSH1 0x1 PUSH1 0x1 PUSH1 0xA0 SHL SUB SWAP1 SWAP2 AND DUP2 MSTORE PUSH1 0x20 ADD PUSH2 0x144 JUMP JUMPDEST PUSH2 0x160 PUSH2 0x25F CALLDATASIZE PUSH1 0x4 PUSH2 0x12E7 JUMP JUMPDEST PUSH2 0xB4F JUMP JUMPDEST PUSH2 0x160 PUSH2 0xEA2 JUMP JUMPDEST PUSH2 0x27F PUSH2 0x27A CALLDATASIZE PUSH1 0x4 PUSH2 0x131D JUMP JUMPDEST PUSH2 0xF14 JUMP JUMPDEST PUSH1 0x40 MLOAD PUSH2 0x144 SWAP2 SWAP1 PUSH2 0x1349 JUMP JUMPDEST PUSH2 0x29F PUSH2 0x29A CALLDATASIZE PUSH1 0x4 PUSH2 0x1103 JUMP JUMPDEST PUSH2 0xF41 JUMP JUMPDEST PUSH1 0x40 MLOAD PUSH2 0x144 SWAP2 SWAP1 PUSH2 0x135C JUMP JUMPDEST PUSH2 0x27F PUSH2 0x2BA CALLDATASIZE PUSH1 0x4 PUSH2 0x131D JUMP JUMPDEST PUSH1 0x6 PUSH1 0x20 SWAP1 DUP2 MSTORE PUSH1 0x0 SWAP3 DUP4 MSTORE PUSH1 0x40 DUP1 DUP5 KECCAK256 SWAP1 SWAP2 MSTORE SWAP1 DUP3 MSTORE SWAP1 KECCAK256 SLOAD PUSH1 0xFF AND DUP2 JUMP JUMPDEST PUSH1 0x4 SLOAD PUSH2 0x1B1 JUMP JUMPDEST PUSH2 0x1B1 PUSH1 0x2 SLOAD DUP2 JUMP JUMPDEST PUSH1 0x5 PUSH1 0x20 MSTORE PUSH1 0x0 SWAP1 DUP2 MSTORE PUSH1 0x40 SWAP1 KECCAK256 DUP1 SLOAD PUSH1 0x1 DUP3 ADD SLOAD PUSH1 0x2 DUP4 ADD DUP1 SLOAD SWAP3 SWAP4 PUSH1 0x1 PUSH1 0x1 PUSH1 0xA0 SHL SUB SWAP1 SWAP3 AND SWAP3 PUSH2 0x31D SWAP1 PUSH2 0x13FF JUMP JUMPDEST DUP1 PUSH1 0x1F ADD PUSH1 0x20 DUP1 SWAP2 DIV MUL PUSH1 0x20 ADD PUSH1 0x40 MLOAD SWAP1 DUP2 ADD PUSH1 0x40 MSTORE DUP1 SWAP3 SWAP2 SWAP1 DUP2 DUP2 MSTORE PUSH1 0x20 ADD DUP3 DUP1 SLOAD PUSH2 0x349 SWAP1 PUSH2 0x13FF JUMP JUMPDEST DUP1 ISZERO PUSH2 0x396 JUMPI DUP1 PUSH1 0x1F LT PUSH2 0x36B JUMPI PUSH2 0x100 DUP1 DUP4 SLOAD DIV MUL DUP4 MSTORE SWAP2 PUSH1 0x20 ADD SWAP2 PUSH2 0x396 JUMP JUMPDEST DUP3 ADD SWAP2 SWAP1 PUSH1 0x0 MSTORE PUSH1 0x20 PUSH1 0x0 KECCAK256 SWAP1 JUMPDEST DUP2 SLOAD DUP2 MSTORE SWAP1 PUSH1 0x1 ADD SWAP1 PUSH1 0x20 ADD DUP1 DUP4 GT PUSH2 0x379 JUMPI DUP3 SWAP1 SUB PUSH1 0x1F AND DUP3 ADD SWAP2 JUMPDEST POP POP POP PUSH1 0x3 DUP5 ADD SLOAD PUSH1 0x4 DUP6 ADD SLOAD PUSH1 0x5 DUP7 ADD SLOAD PUSH1 0x6 DUP8 ADD SLOAD PUSH1 0x7 DUP9 ADD SLOAD PUSH1 0x8 SWAP1 SWAP9 ADD SLOAD SWAP7 SWAP8 SWAP4 SWAP7 SWAP3 SWAP6 POP SWAP1 SWAP4 POP SWAP2 SWAP1 PUSH1 0xFF DUP1 DUP3 AND SWAP2 PUSH2 0x100 SWAP1 DIV AND DUP11 JUMP JUMPDEST PUSH1 0x0 DUP2 DUP2 MSTORE PUSH1 0x5 PUSH1 0x20 MSTORE PUSH1 0x40 DUP2 KECCAK256 DUP1 SLOAD SWAP1 SWAP2 SUB PUSH2 0x40B JUMPI PUSH1 0x40 MLOAD PUSH3 0x461BCD PUSH1 0xE5 SHL DUP2 MSTORE PUSH1 0x4 ADD PUSH2 0x402 SWAP1 PUSH2 0x1439 JUMP JUMPDEST PUSH1 0x40 MLOAD DUP1 SWAP2 SUB SWAP1 REVERT JUMPDEST PUSH1 0x8 DUP2 ADD SLOAD PUSH2 0x100 SWAP1 DIV PUSH1 0xFF AND ISZERO PUSH2 0x465 JUMPI PUSH1 0x40 MLOAD PUSH3 0x461BCD PUSH1 0xE5 SHL DUP2 MSTORE PUSH1 0x20 PUSH1 0x4 DUP3 ADD MSTORE PUSH1 0x1F PUSH1 0x24 DUP3 ADD MSTORE PUSH32 0x476F7665726E616E636553706163653A20616C726561647920636C6F73656400 PUSH1 0x44 DUP3 ADD MSTORE PUSH1 0x64 ADD PUSH2 0x402 JUMP JUMPDEST DUP1 PUSH1 0x4 ADD SLOAD TIMESTAMP GT PUSH2 0x4B8 JUMPI PUSH1 0x40 MLOAD PUSH3 0x461BCD PUSH1 0xE5 SHL DUP2 MSTORE PUSH1 0x20 PUSH1 0x4 DUP3 ADD MSTORE PUSH1 0x1D PUSH1 0x24 DUP3 ADD MSTORE PUSH32 0x476F7665726E616E636553706163653A207374696C6C20616374697665000000 PUSH1 0x44 DUP3 ADD MSTORE PUSH1 0x64 ADD PUSH2 0x402 JUMP JUMPDEST PUSH1 0x8 DUP2 ADD DUP1 SLOAD PUSH2 0xFF00 NOT AND PUSH2 0x100 OR SWAP1 SSTORE PUSH1 0x7 DUP2 ADD SLOAD PUSH1 0x6 DUP3 ADD SLOAD PUSH1 0x5 DUP4 ADD SLOAD PUSH1 0x0 SWAP3 SWAP2 PUSH2 0x4E5 SWAP2 PUSH2 0x1492 JUMP JUMPDEST PUSH2 0x4EF SWAP2 SWAP1 PUSH2 0x1492 JUMP JUMPDEST SWAP1 POP PUSH1 0x0 PUSH1 0x64 PUSH1 0x2 SLOAD PUSH1 0x9 SLOAD PUSH2 0x505 SWAP2 SWAP1 PUSH2 0x14A5 JUMP JUMPDEST PUSH2 0x50F SWAP2 SWAP1 PUSH2 0x14BC JUMP JUMPDEST SWAP1 POP DUP1 DUP3 LT ISZERO PUSH2 0x535 JUMPI PUSH1 0x8 DUP4 ADD DUP1 SLOAD PUSH1 0x3 SWAP2 SWAP1 PUSH1 0xFF NOT AND PUSH1 0x1 DUP4 JUMPDEST MUL OR SWAP1 SSTORE POP PUSH2 0x56A JUMP JUMPDEST DUP3 PUSH1 0x6 ADD SLOAD DUP4 PUSH1 0x5 ADD SLOAD GT ISZERO PUSH2 0x55A JUMPI PUSH1 0x8 DUP4 ADD DUP1 SLOAD PUSH1 0x1 SWAP2 SWAP1 PUSH1 0xFF NOT AND DUP3 DUP1 PUSH2 0x52B JUMP JUMPDEST PUSH1 0x8 DUP4 ADD DUP1 SLOAD PUSH1 0xFF NOT AND PUSH1 0x2 OR SWAP1 SSTORE JUMPDEST PUSH1 0x8 DUP4 ADD SLOAD PUSH1 0x5 DUP5 ADD SLOAD PUSH1 0x6 DUP6 ADD SLOAD PUSH1 0x7 DUP7 ADD SLOAD PUSH1 0x40 MLOAD DUP9 SWAP5 PUSH32 0xA6C824972B5B7A11C878ADA39CF95ECAB08F2938BBED74AC52E835FFE928248E SWAP5 PUSH2 0x5B6 SWAP5 PUSH1 0xFF SWAP1 SWAP3 AND SWAP4 SWAP1 SWAP3 PUSH2 0x14DE JUMP JUMPDEST PUSH1 0x40 MLOAD DUP1 SWAP2 SUB SWAP1 LOG2 POP POP POP POP JUMP JUMPDEST PUSH1 0x0 SLOAD PUSH1 0x1 PUSH1 0x1 PUSH1 0xA0 SHL SUB AND CALLER EQ DUP1 PUSH2 0x5EC JUMPI POP CALLER PUSH1 0x0 SWAP1 DUP2 MSTORE PUSH1 0x8 PUSH1 0x20 MSTORE PUSH1 0x40 SWAP1 KECCAK256 SLOAD PUSH1 0xFF AND JUMPDEST PUSH2 0x638 JUMPI PUSH1 0x40 MLOAD PUSH3 0x461BCD PUSH1 0xE5 SHL DUP2 MSTORE PUSH1 0x20 PUSH1 0x4 DUP3 ADD MSTORE PUSH1 0x1A PUSH1 0x24 DUP3 ADD MSTORE PUSH32 0x476F7665726E616E636553706163653A206E6F742061646D696E000000000000 PUSH1 0x44 DUP3 ADD MSTORE PUSH1 0x64 ADD PUSH2 0x402 JUMP JUMPDEST PUSH1 0x0 SLOAD PUSH1 0x1 PUSH1 0x1 PUSH1 0xA0 SHL SUB SWAP1 DUP2 AND SWAP1 DUP3 AND SUB PUSH2 0x6A2 JUMPI PUSH1 0x40 MLOAD PUSH3 0x461BCD PUSH1 0xE5 SHL DUP2 MSTORE PUSH1 0x20 PUSH1 0x4 DUP3 ADD MSTORE PUSH1 0x24 DUP1 DUP3 ADD MSTORE PUSH32 0x476F7665726E616E636553706163653A2063616E6E6F742072656D6F7665206F PUSH1 0x44 DUP3 ADD MSTORE PUSH4 0x3BB732B9 PUSH1 0xE1 SHL PUSH1 0x64 DUP3 ADD MSTORE PUSH1 0x84 ADD PUSH2 0x402 JUMP JUMPDEST PUSH1 0x1 PUSH1 0x1 PUSH1 0xA0 SHL SUB DUP2 AND PUSH1 0x0 SWAP1 DUP2 MSTORE PUSH1 0x7 PUSH1 0x20 MSTORE PUSH1 0x40 SWAP1 KECCAK256 SLOAD PUSH1 0xFF AND ISZERO PUSH2 0x74B JUMPI PUSH1 0x1 PUSH1 0x1 PUSH1 0xA0 SHL SUB DUP2 AND PUSH1 0x0 SWAP1 DUP2 MSTORE PUSH1 0x7 PUSH1 0x20 SWAP1 DUP2 MSTORE PUSH1 0x40 DUP1 DUP4 KECCAK256 DUP1 SLOAD PUSH1 0xFF NOT SWAP1 DUP2 AND SWAP1 SWAP2 SSTORE PUSH1 0x8 SWAP1 SWAP3 MSTORE SWAP1 SWAP2 KECCAK256 DUP1 SLOAD SWAP1 SWAP2 AND SWAP1 SSTORE PUSH1 0x9 SLOAD ISZERO PUSH2 0x716 JUMPI PUSH1 0x9 DUP1 SLOAD SWAP1 PUSH1 0x0 PUSH2 0x710 DUP4 PUSH2 0x1507 JUMP JUMPDEST SWAP2 SWAP1 POP SSTORE POP JUMPDEST PUSH1 0x40 MLOAD PUSH1 0x1 PUSH1 0x1 PUSH1 0xA0 SHL SUB DUP3 AND SWAP1 PUSH32 0x6E76FB4C77256006D9C38EC7D82B45A8C8F3C27B1D6766FFFC42DFB8DE684492 SWAP1 PUSH1 0x0 SWAP1 LOG2 JUMPDEST POP JUMP JUMPDEST CALLER PUSH1 0x0 SWAP1 DUP2 MSTORE PUSH1 0x7 PUSH1 0x20 MSTORE PUSH1 0x40 DUP2 KECCAK256 SLOAD PUSH1 0xFF AND PUSH2 0x77D JUMPI PUSH1 0x40 MLOAD PUSH3 0x461BCD PUSH1 0xE5 SHL DUP2 MSTORE PUSH1 0x4 ADD PUSH2 0x402 SWAP1 PUSH2 0x151E JUMP JUMPDEST PUSH1 0x0 DUP4 ISZERO PUSH2 0x78B JUMPI DUP4 PUSH2 0x78D JUMP JUMPDEST TIMESTAMP JUMPDEST SWAP1 POP PUSH1 0x0 DUP4 ISZERO PUSH2 0x79D JUMPI DUP4 PUSH2 0x7AA JUMP JUMPDEST PUSH1 0x3 SLOAD PUSH2 0x7AA SWAP1 DUP4 PUSH2 0x1492 JUMP JUMPDEST SWAP1 POP DUP2 DUP2 GT PUSH2 0x807 JUMPI PUSH1 0x40 MLOAD PUSH3 0x461BCD PUSH1 0xE5 SHL DUP2 MSTORE PUSH1 0x20 PUSH1 0x4 DUP3 ADD MSTORE PUSH1 0x24 DUP1 DUP3 ADD MSTORE PUSH32 0x476F7665726E616E636553706163653A20696E76616C69642074696D65207769 PUSH1 0x44 DUP3 ADD MSTORE PUSH4 0x6E646F77 PUSH1 0xE0 SHL PUSH1 0x64 DUP3 ADD MSTORE PUSH1 0x84 ADD PUSH2 0x402 JUMP JUMPDEST PUSH1 0x0 PUSH1 0x4 PUSH1 0x0 DUP2 SLOAD PUSH2 0x818 SWAP1 PUSH2 0x1555 JUMP JUMPDEST SWAP2 SWAP1 POP DUP2 SWAP1 SSTORE SWAP1 POP PUSH1 0x40 MLOAD DUP1 PUSH2 0x140 ADD PUSH1 0x40 MSTORE DUP1 DUP3 DUP2 MSTORE PUSH1 0x20 ADD CALLER PUSH1 0x1 PUSH1 0x1 PUSH1 0xA0 SHL SUB AND DUP2 MSTORE PUSH1 0x20 ADD DUP10 DUP10 DUP1 DUP1 PUSH1 0x1F ADD PUSH1 0x20 DUP1 SWAP2 DIV MUL PUSH1 0x20 ADD PUSH1 0x40 MLOAD SWAP1 DUP2 ADD PUSH1 0x40 MSTORE DUP1 SWAP4 SWAP3 SWAP2 SWAP1 DUP2 DUP2 MSTORE PUSH1 0x20 ADD DUP4 DUP4 DUP1 DUP3 DUP5 CALLDATACOPY PUSH1 0x0 SWAP3 ADD DUP3 SWAP1 MSTORE POP SWAP4 DUP6 MSTORE POP POP POP PUSH1 0x20 DUP3 ADD DUP7 SWAP1 MSTORE PUSH1 0x40 DUP3 ADD DUP6 SWAP1 MSTORE PUSH1 0x60 DUP3 ADD DUP2 SWAP1 MSTORE PUSH1 0x80 DUP3 ADD DUP2 SWAP1 MSTORE PUSH1 0xA0 DUP3 ADD DUP2 SWAP1 MSTORE PUSH1 0xC0 SWAP1 SWAP2 ADD SWAP1 DUP2 MSTORE PUSH1 0x0 PUSH1 0x20 SWAP2 DUP3 ADD DUP2 SWAP1 MSTORE DUP4 DUP2 MSTORE PUSH1 0x5 DUP3 MSTORE PUSH1 0x40 SWAP1 DUP2 SWAP1 KECCAK256 DUP4 MLOAD DUP2 SSTORE SWAP2 DUP4 ADD MLOAD PUSH1 0x1 DUP4 ADD DUP1 SLOAD PUSH1 0x1 PUSH1 0x1 PUSH1 0xA0 SHL SUB NOT AND PUSH1 0x1 PUSH1 0x1 PUSH1 0xA0 SHL SUB SWAP1 SWAP3 AND SWAP2 SWAP1 SWAP2 OR SWAP1 SSTORE DUP3 ADD MLOAD PUSH1 0x2 DUP3 ADD SWAP1 PUSH2 0x8F6 SWAP1 DUP3 PUSH2 0x15D5 JUMP JUMPDEST POP PUSH1 0x60 DUP3 ADD MLOAD DUP2 PUSH1 0x3 ADD SSTORE PUSH1 0x80 DUP3 ADD MLOAD DUP2 PUSH1 0x4 ADD SSTORE PUSH1 0xA0 DUP3 ADD MLOAD DUP2 PUSH1 0x5 ADD SSTORE PUSH1 0xC0 DUP3 ADD MLOAD DUP2 PUSH1 0x6 ADD SSTORE PUSH1 0xE0 DUP3 ADD MLOAD DUP2 PUSH1 0x7 ADD SSTORE PUSH2 0x100 DUP3 ADD MLOAD DUP2 PUSH1 0x8 ADD PUSH1 0x0 PUSH2 0x100 EXP DUP2 SLOAD DUP2 PUSH1 0xFF MUL NOT AND SWAP1 DUP4 PUSH1 0x3 DUP2 GT ISZERO PUSH2 0x954 JUMPI PUSH2 0x954 PUSH2 0x1162 JUMP JUMPDEST MUL OR SWAP1 SSTORE POP PUSH2 0x120 SWAP2 SWAP1 SWAP2 ADD MLOAD PUSH1 0x8 SWAP1 SWAP2 ADD DUP1 SLOAD SWAP2 ISZERO ISZERO PUSH2 0x100 MUL PUSH2 0xFF00 NOT SWAP1 SWAP3 AND SWAP2 SWAP1 SWAP2 OR SWAP1 SSTORE PUSH1 0x40 MLOAD CALLER SWAP1 DUP3 SWAP1 PUSH32 0x6C98A8C940418B35614F0CD02412D5C9606FAFF474CBB6CDD6640BA5D1A9F06B SWAP1 PUSH2 0x9B6 SWAP1 DUP13 SWAP1 DUP13 SWAP1 DUP10 SWAP1 DUP10 SWAP1 PUSH2 0x1695 JUMP JUMPDEST PUSH1 0x40 MLOAD DUP1 SWAP2 SUB SWAP1 LOG3 SWAP8 SWAP7 POP POP POP POP POP POP POP JUMP JUMPDEST PUSH1 0x0 SLOAD PUSH1 0x1 PUSH1 0x1 PUSH1 0xA0 SHL SUB AND CALLER EQ DUP1 PUSH2 0x9F1 JUMPI POP CALLER PUSH1 0x0 SWAP1 DUP2 MSTORE PUSH1 0x8 PUSH1 0x20 MSTORE PUSH1 0x40 SWAP1 KECCAK256 SLOAD PUSH1 0xFF AND JUMPDEST PUSH2 0xA3D JUMPI PUSH1 0x40 MLOAD PUSH3 0x461BCD PUSH1 0xE5 SHL DUP2 MSTORE PUSH1 0x20 PUSH1 0x4 DUP3 ADD MSTORE PUSH1 0x1A PUSH1 0x24 DUP3 ADD MSTORE PUSH32 0x476F7665726E616E636553706163653A206E6F742061646D696E000000000000 PUSH1 0x44 DUP3 ADD MSTORE PUSH1 0x64 ADD PUSH2 0x402 JUMP JUMPDEST PUSH1 0x1 PUSH1 0x1 PUSH1 0xA0 SHL SUB DUP2 AND PUSH1 0x0 SWAP1 DUP2 MSTORE PUSH1 0x7 PUSH1 0x20 MSTORE PUSH1 0x40 SWAP1 KECCAK256 SLOAD PUSH1 0xFF AND PUSH2 0xA75 JUMPI PUSH1 0x40 MLOAD PUSH3 0x461BCD PUSH1 0xE5 SHL DUP2 MSTORE PUSH1 0x4 ADD PUSH2 0x402 SWAP1 PUSH2 0x151E JUMP JUMPDEST PUSH1 0x1 PUSH1 0x1 PUSH1 0xA0 SHL SUB DUP2 AND PUSH1 0x0 DUP2 DUP2 MSTORE PUSH1 0x8 PUSH1 0x20 MSTORE PUSH1 0x40 DUP1 DUP3 KECCAK256 DUP1 SLOAD PUSH1 0xFF NOT AND PUSH1 0x1 OR SWAP1 SSTORE MLOAD PUSH32 0x44D6D25963F097AD14F29F06854A01F575648A1EF82F30E562CCD3889717E339 SWAP2 SWAP1 LOG2 POP JUMP JUMPDEST PUSH1 0x1 DUP1 SLOAD PUSH2 0xACE SWAP1 PUSH2 0x13FF JUMP JUMPDEST DUP1 PUSH1 0x1F ADD PUSH1 0x20 DUP1 SWAP2 DIV MUL PUSH1 0x20 ADD PUSH1 0x40 MLOAD SWAP1 DUP2 ADD PUSH1 0x40 MSTORE DUP1 SWAP3 SWAP2 SWAP1 DUP2 DUP2 MSTORE PUSH1 0x20 ADD DUP3 DUP1 SLOAD PUSH2 0xAFA SWAP1 PUSH2 0x13FF JUMP JUMPDEST DUP1 ISZERO PUSH2 0xB47 JUMPI DUP1 PUSH1 0x1F LT PUSH2 0xB1C JUMPI PUSH2 0x100 DUP1 DUP4 SLOAD DIV MUL DUP4 MSTORE SWAP2 PUSH1 0x20 ADD SWAP2 PUSH2 0xB47 JUMP JUMPDEST DUP3 ADD SWAP2 SWAP1 PUSH1 0x0 MSTORE PUSH1 0x20 PUSH1 0x0 KECCAK256 SWAP1 JUMPDEST DUP2 SLOAD DUP2 MSTORE SWAP1 PUSH1 0x1 ADD SWAP1 PUSH1 0x20 ADD DUP1 DUP4 GT PUSH2 0xB2A JUMPI DUP3 SWAP1 SUB PUSH1 0x1F AND DUP3 ADD SWAP2 JUMPDEST POP POP POP POP POP DUP2 JUMP JUMPDEST CALLER PUSH1 0x0 SWAP1 DUP2 MSTORE PUSH1 0x7 PUSH1 0x20 MSTORE PUSH1 0x40 SWAP1 KECCAK256 SLOAD PUSH1 0xFF AND PUSH2 0xB7E JUMPI PUSH1 0x40 MLOAD PUSH3 0x461BCD PUSH1 0xE5 SHL DUP2 MSTORE PUSH1 0x4 ADD PUSH2 0x402 SWAP1 PUSH2 0x151E JUMP JUMPDEST PUSH1 0x1 DUP2 PUSH1 0xFF AND LT ISZERO DUP1 ISZERO PUSH2 0xB96 JUMPI POP PUSH1 0x3 DUP2 PUSH1 0xFF AND GT ISZERO JUMPDEST PUSH2 0xBE2 JUMPI PUSH1 0x40 MLOAD PUSH3 0x461BCD PUSH1 0xE5 SHL DUP2 MSTORE PUSH1 0x20 PUSH1 0x4 DUP3 ADD MSTORE PUSH1 0x1F PUSH1 0x24 DUP3 ADD MSTORE PUSH32 0x476F7665726E616E636553706163653A20696E76616C6964206F7074696F6E00 PUSH1 0x44 DUP3 ADD MSTORE PUSH1 0x64 ADD PUSH2 0x402 JUMP JUMPDEST PUSH1 0x0 DUP3 DUP2 MSTORE PUSH1 0x5 PUSH1 0x20 MSTORE PUSH1 0x40 DUP2 KECCAK256 DUP1 SLOAD SWAP1 SWAP2 SUB PUSH2 0xC11 JUMPI PUSH1 0x40 MLOAD PUSH3 0x461BCD PUSH1 0xE5 SHL DUP2 MSTORE PUSH1 0x4 ADD PUSH2 0x402 SWAP1 PUSH2 0x1439 JUMP JUMPDEST PUSH1 0x8 DUP2 ADD SLOAD PUSH2 0x100 SWAP1 DIV PUSH1 0xFF AND ISZERO PUSH2 0xC6B JUMPI PUSH1 0x40 MLOAD PUSH3 0x461BCD PUSH1 0xE5 SHL DUP2 MSTORE PUSH1 0x20 PUSH1 0x4 DUP3 ADD MSTORE PUSH1 0x1E PUSH1 0x24 DUP3 ADD MSTORE PUSH32 0x476F7665726E616E636553706163653A20766F74696E6720636C6F7365640000 PUSH1 0x44 DUP3 ADD MSTORE PUSH1 0x64 ADD PUSH2 0x402 JUMP JUMPDEST DUP1 PUSH1 0x3 ADD SLOAD TIMESTAMP LT ISZERO PUSH2 0xCBF JUMPI PUSH1 0x40 MLOAD PUSH3 0x461BCD PUSH1 0xE5 SHL DUP2 MSTORE PUSH1 0x20 PUSH1 0x4 DUP3 ADD MSTORE PUSH1 0x1C PUSH1 0x24 DUP3 ADD MSTORE PUSH32 0x476F7665726E616E636553706163653A206E6F74207374617274656400000000 PUSH1 0x44 DUP3 ADD MSTORE PUSH1 0x64 ADD PUSH2 0x402 JUMP JUMPDEST DUP1 PUSH1 0x4 ADD SLOAD TIMESTAMP GT ISZERO PUSH2 0xD13 JUMPI PUSH1 0x40 MLOAD PUSH3 0x461BCD PUSH1 0xE5 SHL DUP2 MSTORE PUSH1 0x20 PUSH1 0x4 DUP3 ADD MSTORE PUSH1 0x1D PUSH1 0x24 DUP3 ADD MSTORE PUSH32 0x476F7665726E616E636553706163653A20766F74696E6720656E646564000000 PUSH1 0x44 DUP3 ADD MSTORE PUSH1 0x64 ADD PUSH2 0x402 JUMP JUMPDEST PUSH1 0x0 DUP4 DUP2 MSTORE PUSH1 0x6 PUSH1 0x20 SWAP1 DUP2 MSTORE PUSH1 0x40 DUP1 DUP4 KECCAK256 CALLER DUP5 MSTORE SWAP1 SWAP2 MSTORE DUP2 KECCAK256 SLOAD PUSH1 0xFF AND PUSH1 0x3 DUP2 GT ISZERO PUSH2 0xD41 JUMPI PUSH2 0xD41 PUSH2 0x1162 JUMP JUMPDEST EQ PUSH2 0xD8E JUMPI PUSH1 0x40 MLOAD PUSH3 0x461BCD PUSH1 0xE5 SHL DUP2 MSTORE PUSH1 0x20 PUSH1 0x4 DUP3 ADD MSTORE PUSH1 0x1E PUSH1 0x24 DUP3 ADD MSTORE PUSH32 0x476F7665726E616E636553706163653A20616C726561647920766F7465640000 PUSH1 0x44 DUP3 ADD MSTORE PUSH1 0x64 ADD PUSH2 0x402 JUMP JUMPDEST PUSH1 0x0 DUP3 PUSH1 0xFF AND PUSH1 0x3 DUP2 GT ISZERO PUSH2 0xDA5 JUMPI PUSH2 0xDA5 PUSH2 0x1162 JUMP JUMPDEST PUSH1 0x0 DUP6 DUP2 MSTORE PUSH1 0x6 PUSH1 0x20 SWAP1 DUP2 MSTORE PUSH1 0x40 DUP1 DUP4 KECCAK256 CALLER DUP5 MSTORE SWAP1 SWAP2 MSTORE SWAP1 KECCAK256 DUP1 SLOAD SWAP2 SWAP3 POP DUP3 SWAP2 PUSH1 0xFF NOT AND PUSH1 0x1 DUP4 PUSH1 0x3 DUP2 GT ISZERO PUSH2 0xDDD JUMPI PUSH2 0xDDD PUSH2 0x1162 JUMP JUMPDEST MUL OR SWAP1 SSTORE POP PUSH1 0x1 DUP2 PUSH1 0x3 DUP2 GT ISZERO PUSH2 0xDF6 JUMPI PUSH2 0xDF6 PUSH2 0x1162 JUMP JUMPDEST SUB PUSH2 0xE17 JUMPI PUSH1 0x5 DUP3 ADD DUP1 SLOAD SWAP1 PUSH1 0x0 PUSH2 0xE0D DUP4 PUSH2 0x1555 JUMP JUMPDEST SWAP2 SWAP1 POP SSTORE POP PUSH2 0xE5A JUMP JUMPDEST PUSH1 0x2 DUP2 PUSH1 0x3 DUP2 GT ISZERO PUSH2 0xE2B JUMPI PUSH2 0xE2B PUSH2 0x1162 JUMP JUMPDEST SUB PUSH2 0xE42 JUMPI PUSH1 0x6 DUP3 ADD DUP1 SLOAD SWAP1 PUSH1 0x0 PUSH2 0xE0D DUP4 PUSH2 0x1555 JUMP JUMPDEST PUSH1 0x7 DUP3 ADD DUP1 SLOAD SWAP1 PUSH1 0x0 PUSH2 0xE54 DUP4 PUSH2 0x1555 JUMP JUMPDEST SWAP2 SWAP1 POP SSTORE POP JUMPDEST CALLER PUSH1 0x1 PUSH1 0x1 PUSH1 0xA0 SHL SUB AND DUP5 PUSH32 0xEBA4866100B822F0F391E610E7EDFAB790B9E8766C0012733C26B2F1858E8DD7 DUP4 PUSH1 0x40 MLOAD PUSH2 0xE94 SWAP2 SWAP1 PUSH2 0x1349 JUMP JUMPDEST PUSH1 0x40 MLOAD DUP1 SWAP2 SUB SWAP1 LOG3 POP POP POP POP JUMP JUMPDEST CALLER PUSH1 0x0 SWAP1 DUP2 MSTORE PUSH1 0x7 PUSH1 0x20 MSTORE PUSH1 0x40 SWAP1 KECCAK256 SLOAD PUSH1 0xFF AND PUSH2 0xF12 JUMPI CALLER PUSH1 0x0 SWAP1 DUP2 MSTORE PUSH1 0x7 PUSH1 0x20 MSTORE PUSH1 0x40 DUP2 KECCAK256 DUP1 SLOAD PUSH1 0xFF NOT AND PUSH1 0x1 OR SWAP1 SSTORE PUSH1 0x9 DUP1 SLOAD SWAP2 PUSH2 0xEE1 DUP4 PUSH2 0x1555 JUMP JUMPDEST SWAP1 SWAP2 SSTORE POP POP PUSH1 0x40 MLOAD CALLER SWAP1 PUSH32 0xB251EB052AFC73FFD02FFE85AD79990A8B3FED60D76DBC2FA2FDD7123DFFD914 SWAP1 PUSH1 0x0 SWAP1 LOG2 JUMPDEST JUMP JUMPDEST PUSH1 0x0 DUP3 DUP2 MSTORE PUSH1 0x6 PUSH1 0x20 SWAP1 DUP2 MSTORE PUSH1 0x40 DUP1 DUP4 KECCAK256 PUSH1 0x1 PUSH1 0x1 PUSH1 0xA0 SHL SUB DUP6 AND DUP5 MSTORE SWAP1 SWAP2 MSTORE SWAP1 KECCAK256 SLOAD PUSH1 0xFF AND JUMPDEST SWAP3 SWAP2 POP POP JUMP JUMPDEST PUSH2 0xF49 PUSH2 0x1096 JUMP JUMPDEST PUSH1 0x0 DUP3 DUP2 MSTORE PUSH1 0x5 PUSH1 0x20 SWAP1 DUP2 MSTORE PUSH1 0x40 SWAP2 DUP3 SWAP1 KECCAK256 DUP3 MLOAD PUSH2 0x140 DUP2 ADD DUP5 MSTORE DUP2 SLOAD DUP2 MSTORE PUSH1 0x1 DUP3 ADD SLOAD PUSH1 0x1 PUSH1 0x1 PUSH1 0xA0 SHL SUB AND SWAP3 DUP2 ADD SWAP3 SWAP1 SWAP3 MSTORE PUSH1 0x2 DUP2 ADD DUP1 SLOAD SWAP3 SWAP4 SWAP2 SWAP3 SWAP2 DUP5 ADD SWAP2 PUSH2 0xF94 SWAP1 PUSH2 0x13FF JUMP JUMPDEST DUP1 PUSH1 0x1F ADD PUSH1 0x20 DUP1 SWAP2 DIV MUL PUSH1 0x20 ADD PUSH1 0x40 MLOAD SWAP1 DUP2 ADD PUSH1 0x40 MSTORE DUP1 SWAP3 SWAP2 SWAP1 DUP2 DUP2 MSTORE PUSH1 0x20 ADD DUP3 DUP1 SLOAD PUSH2 0xFC0 SWAP1 PUSH2 0x13FF JUMP JUMPDEST DUP1 ISZERO PUSH2 0x100D JUMPI DUP1 PUSH1 0x1F LT PUSH2 0xFE2 JUMPI PUSH2 0x100 DUP1 DUP4 SLOAD DIV MUL DUP4 MSTORE SWAP2 PUSH1 0x20 ADD SWAP2 PUSH2 0x100D JUMP JUMPDEST DUP3 ADD SWAP2 SWAP1 PUSH1 0x0 MSTORE PUSH1 0x20 PUSH1 0x0 KECCAK256 SWAP1 JUMPDEST DUP2 SLOAD DUP2 MSTORE SWAP1 PUSH1 0x1 ADD SWAP1 PUSH1 0x20 ADD DUP1 DUP4 GT PUSH2 0xFF0 JUMPI DUP3 SWAP1 SUB PUSH1 0x1F AND DUP3 ADD SWAP2 JUMPDEST POP POP POP SWAP2 DUP4 MSTORE POP POP PUSH1 0x3 DUP3 DUP2 ADD SLOAD PUSH1 0x20 DUP4 ADD MSTORE PUSH1 0x4 DUP4 ADD SLOAD PUSH1 0x40 DUP4 ADD MSTORE PUSH1 0x5 DUP4 ADD SLOAD PUSH1 0x60 DUP4 ADD MSTORE PUSH1 0x6 DUP4 ADD SLOAD PUSH1 0x80 DUP4 ADD MSTORE PUSH1 0x7 DUP4 ADD SLOAD PUSH1 0xA0 DUP4 ADD MSTORE PUSH1 0x8 DUP4 ADD SLOAD PUSH1 0xC0 SWAP1 SWAP3 ADD SWAP2 PUSH1 0xFF AND SWAP1 DUP2 GT ISZERO PUSH2 0x1066 JUMPI PUSH2 0x1066 PUSH2 0x1162 JUMP JUMPDEST PUSH1 0x3 DUP2 GT ISZERO PUSH2 0x1077 JUMPI PUSH2 0x1077 PUSH2 0x1162 JUMP JUMPDEST DUP2 MSTORE PUSH1 0x8 SWAP2 SWAP1 SWAP2 ADD SLOAD PUSH2 0x100 SWAP1 DIV PUSH1 0xFF AND ISZERO ISZERO PUSH1 0x20 SWAP1 SWAP2 ADD MSTORE SWAP3 SWAP2 POP POP JUMP JUMPDEST PUSH1 0x40 MLOAD DUP1 PUSH2 0x140 ADD PUSH1 0x40 MSTORE DUP1 PUSH1 0x0 DUP2 MSTORE PUSH1 0x20 ADD PUSH1 0x0 PUSH1 0x1 PUSH1 0x1 PUSH1 0xA0 SHL SUB AND DUP2 MSTORE PUSH1 0x20 ADD PUSH1 0x60 DUP2 MSTORE PUSH1 0x20 ADD PUSH1 0x0 DUP2 MSTORE PUSH1 0x20 ADD PUSH1 0x0 DUP2 MSTORE PUSH1 0x20 ADD PUSH1 0x0 DUP2 MSTORE PUSH1 0x20 ADD PUSH1 0x0 DUP2 MSTORE PUSH1 0x20 ADD PUSH1 0x0 DUP2 MSTORE PUSH1 0x20 ADD PUSH1 0x0 PUSH1 0x3 DUP2 GT ISZERO PUSH2 0x10F6 JUMPI PUSH2 0x10F6 PUSH2 0x1162 JUMP JUMPDEST DUP2 MSTORE PUSH1 0x0 PUSH1 0x20 SWAP1 SWAP2 ADD MSTORE SWAP1 JUMP JUMPDEST PUSH1 0x0 PUSH1 0x20 DUP3 DUP5 SUB SLT ISZERO PUSH2 0x1115 JUMPI PUSH1 0x0 DUP1 REVERT JUMPDEST POP CALLDATALOAD SWAP2 SWAP1 POP JUMP JUMPDEST PUSH1 0x0 DUP2 MLOAD DUP1 DUP5 MSTORE PUSH1 0x0 JUMPDEST DUP2 DUP2 LT ISZERO PUSH2 0x1142 JUMPI PUSH1 0x20 DUP2 DUP6 ADD DUP2 ADD MLOAD DUP7 DUP4 ADD DUP3 ADD MSTORE ADD PUSH2 0x1126 JUMP JUMPDEST POP PUSH1 0x0 PUSH1 0x20 DUP3 DUP7 ADD ADD MSTORE PUSH1 0x20 PUSH1 0x1F NOT PUSH1 0x1F DUP4 ADD AND DUP6 ADD ADD SWAP2 POP POP SWAP3 SWAP2 POP POP JUMP JUMPDEST PUSH4 0x4E487B71 PUSH1 0xE0 SHL PUSH1 0x0 MSTORE PUSH1 0x21 PUSH1 0x4 MSTORE PUSH1 0x24 PUSH1 0x0 REVERT JUMPDEST PUSH1 0x4 DUP2 LT PUSH2 0x74B JUMPI PUSH4 0x4E487B71 PUSH1 0xE0 SHL PUSH1 0x0 MSTORE PUSH1 0x21 PUSH1 0x4 MSTORE PUSH1 0x24 PUSH1 0x0 REVERT JUMPDEST PUSH2 0x119F DUP2 PUSH2 0x1178 JUMP JUMPDEST SWAP1 MSTORE JUMP JUMPDEST DUP11 DUP2 MSTORE PUSH1 0x1 PUSH1 0x1 PUSH1 0xA0 SHL SUB DUP11 AND PUSH1 0x20 DUP3 ADD MSTORE PUSH2 0x140 PUSH1 0x40 DUP3 ADD DUP2 SWAP1 MSTORE PUSH1 0x0 SWAP1 PUSH2 0x11CE DUP4 DUP3 ADD DUP13 PUSH2 0x111C JUMP JUMPDEST SWAP2 POP POP DUP9 PUSH1 0x60 DUP4 ADD MSTORE DUP8 PUSH1 0x80 DUP4 ADD MSTORE DUP7 PUSH1 0xA0 DUP4 ADD MSTORE DUP6 PUSH1 0xC0 DUP4 ADD MSTORE DUP5 PUSH1 0xE0 DUP4 ADD MSTORE PUSH2 0x11F8 DUP5 PUSH2 0x1178 JUMP JUMPDEST DUP4 PUSH2 0x100 DUP4 ADD MSTORE DUP3 ISZERO ISZERO PUSH2 0x120 DUP4 ADD MSTORE SWAP12 SWAP11 POP POP POP POP POP POP POP POP POP POP POP JUMP JUMPDEST DUP1 CALLDATALOAD PUSH1 0x1 PUSH1 0x1 PUSH1 0xA0 SHL SUB DUP2 AND DUP2 EQ PUSH2 0x122E JUMPI PUSH1 0x0 DUP1 REVERT JUMPDEST SWAP2 SWAP1 POP JUMP JUMPDEST PUSH1 0x0 PUSH1 0x20 DUP3 DUP5 SUB SLT ISZERO PUSH2 0x1245 JUMPI PUSH1 0x0 DUP1 REVERT JUMPDEST PUSH2 0x124E DUP3 PUSH2 0x1217 JUMP JUMPDEST SWAP4 SWAP3 POP POP POP JUMP JUMPDEST PUSH1 0x0 DUP1 PUSH1 0x0 DUP1 PUSH1 0x60 DUP6 DUP8 SUB SLT ISZERO PUSH2 0x126B JUMPI PUSH1 0x0 DUP1 REVERT JUMPDEST DUP5 CALLDATALOAD PUSH8 0xFFFFFFFFFFFFFFFF DUP1 DUP3 GT ISZERO PUSH2 0x1283 JUMPI PUSH1 0x0 DUP1 REVERT JUMPDEST DUP2 DUP8 ADD SWAP2 POP DUP8 PUSH1 0x1F DUP4 ADD SLT PUSH2 0x1297 JUMPI PUSH1 0x0 DUP1 REVERT JUMPDEST DUP2 CALLDATALOAD DUP2 DUP2 GT ISZERO PUSH2 0x12A6 JUMPI PUSH1 0x0 DUP1 REVERT JUMPDEST DUP9 PUSH1 0x20 DUP3 DUP6 ADD ADD GT ISZERO PUSH2 0x12B8 JUMPI PUSH1 0x0 DUP1 REVERT JUMPDEST PUSH1 0x20 SWAP3 DUP4 ADD SWAP10 SWAP1 SWAP9 POP SWAP2 DUP8 ADD CALLDATALOAD SWAP7 PUSH1 0x40 ADD CALLDATALOAD SWAP6 POP SWAP1 SWAP4 POP POP POP POP JUMP JUMPDEST PUSH1 0x20 DUP2 MSTORE PUSH1 0x0 PUSH2 0x124E PUSH1 0x20 DUP4 ADD DUP5 PUSH2 0x111C JUMP JUMPDEST PUSH1 0x0 DUP1 PUSH1 0x40 DUP4 DUP6 SUB SLT ISZERO PUSH2 0x12FA JUMPI PUSH1 0x0 DUP1 REVERT JUMPDEST DUP3 CALLDATALOAD SWAP2 POP PUSH1 0x20 DUP4 ADD CALLDATALOAD PUSH1 0xFF DUP2 AND DUP2 EQ PUSH2 0x1312 JUMPI PUSH1 0x0 DUP1 REVERT JUMPDEST DUP1 SWAP2 POP POP SWAP3 POP SWAP3 SWAP1 POP JUMP JUMPDEST PUSH1 0x0 DUP1 PUSH1 0x40 DUP4 DUP6 SUB SLT ISZERO PUSH2 0x1330 JUMPI PUSH1 0x0 DUP1 REVERT JUMPDEST DUP3 CALLDATALOAD SWAP2 POP PUSH2 0x1340 PUSH1 0x20 DUP5 ADD PUSH2 0x1217 JUMP JUMPDEST SWAP1 POP SWAP3 POP SWAP3 SWAP1 POP JUMP JUMPDEST PUSH1 0x20 DUP2 ADD PUSH2 0x1356 DUP4 PUSH2 0x1178 JUMP JUMPDEST SWAP2 SWAP1 MSTORE SWAP1 JUMP JUMPDEST PUSH1 0x20 DUP2 MSTORE DUP2 MLOAD PUSH1 0x20 DUP3 ADD MSTORE PUSH1 0x0 PUSH1 0x20 DUP4 ADD MLOAD PUSH2 0x1383 PUSH1 0x40 DUP5 ADD DUP3 PUSH1 0x1 PUSH1 0x1 PUSH1 0xA0 SHL SUB AND SWAP1 MSTORE JUMP JUMPDEST POP PUSH1 0x40 DUP4 ADD MLOAD PUSH2 0x140 DUP1 PUSH1 0x60 DUP6 ADD MSTORE PUSH2 0x13A0 PUSH2 0x160 DUP6 ADD DUP4 PUSH2 0x111C JUMP JUMPDEST SWAP2 POP PUSH1 0x60 DUP6 ADD MLOAD PUSH1 0x80 DUP6 ADD MSTORE PUSH1 0x80 DUP6 ADD MLOAD PUSH1 0xA0 DUP6 ADD MSTORE PUSH1 0xA0 DUP6 ADD MLOAD PUSH1 0xC0 DUP6 ADD MSTORE PUSH1 0xC0 DUP6 ADD MLOAD PUSH1 0xE0 DUP6 ADD MSTORE PUSH1 0xE0 DUP6 ADD MLOAD PUSH2 0x100 DUP2 DUP2 DUP8 ADD MSTORE DUP1 DUP8 ADD MLOAD SWAP2 POP POP PUSH2 0x120 PUSH2 0x13ED DUP2 DUP8 ADD DUP4 PUSH2 0x1196 JUMP JUMPDEST SWAP1 SWAP6 ADD MLOAD ISZERO ISZERO SWAP4 ADD SWAP3 SWAP1 SWAP3 MSTORE POP SWAP2 SWAP1 POP JUMP JUMPDEST PUSH1 0x1 DUP2 DUP2 SHR SWAP1 DUP3 AND DUP1 PUSH2 0x1413 JUMPI PUSH1 0x7F DUP3 AND SWAP2 POP JUMPDEST PUSH1 0x20 DUP3 LT DUP2 SUB PUSH2 0x1433 JUMPI PUSH4 0x4E487B71 PUSH1 0xE0 SHL PUSH1 0x0 MSTORE PUSH1 0x22 PUSH1 0x4 MSTORE PUSH1 0x24 PUSH1 0x0 REVERT JUMPDEST POP SWAP2 SWAP1 POP JUMP JUMPDEST PUSH1 0x20 DUP1 DUP3 MSTORE PUSH1 0x23 SWAP1 DUP3 ADD MSTORE PUSH32 0x476F7665726E616E636553706163653A2070726F706F73616C206E6F7420666F PUSH1 0x40 DUP3 ADD MSTORE PUSH3 0x1D5B99 PUSH1 0xEA SHL PUSH1 0x60 DUP3 ADD MSTORE PUSH1 0x80 ADD SWAP1 JUMP JUMPDEST PUSH4 0x4E487B71 PUSH1 0xE0 SHL PUSH1 0x0 MSTORE PUSH1 0x11 PUSH1 0x4 MSTORE PUSH1 0x24 PUSH1 0x0 REVERT JUMPDEST DUP1 DUP3 ADD DUP1 DUP3 GT ISZERO PUSH2 0xF3B JUMPI PUSH2 0xF3B PUSH2 0x147C JUMP JUMPDEST DUP1 DUP3 MUL DUP2 ISZERO DUP3 DUP3 DIV DUP5 EQ OR PUSH2 0xF3B JUMPI PUSH2 0xF3B PUSH2 0x147C JUMP JUMPDEST PUSH1 0x0 DUP3 PUSH2 0x14D9 JUMPI PUSH4 0x4E487B71 PUSH1 0xE0 SHL PUSH1 0x0 MSTORE PUSH1 0x12 PUSH1 0x4 MSTORE PUSH1 0x24 PUSH1 0x0 REVERT JUMPDEST POP DIV SWAP1 JUMP JUMPDEST PUSH1 0x80 DUP2 ADD PUSH2 0x14EB DUP7 PUSH2 0x1178 JUMP JUMPDEST SWAP5 DUP2 MSTORE PUSH1 0x20 DUP2 ADD SWAP4 SWAP1 SWAP4 MSTORE PUSH1 0x40 DUP4 ADD SWAP2 SWAP1 SWAP2 MSTORE PUSH1 0x60 SWAP1 SWAP2 ADD MSTORE SWAP1 JUMP JUMPDEST PUSH1 0x0 DUP2 PUSH2 0x1516 JUMPI PUSH2 0x1516 PUSH2 0x147C JUMP JUMPDEST POP PUSH1 0x0 NOT ADD SWAP1 JUMP JUMPDEST PUSH1 0x20 DUP1 DUP3 MSTORE PUSH1 0x1D SWAP1 DUP3 ADD MSTORE PUSH32 0x476F7665726E616E636553706163653A206E6F742061206D656D626572000000 PUSH1 0x40 DUP3 ADD MSTORE PUSH1 0x60 ADD SWAP1 JUMP JUMPDEST PUSH1 0x0 PUSH1 0x1 DUP3 ADD PUSH2 0x1567 JUMPI PUSH2 0x1567 PUSH2 0x147C JUMP JUMPDEST POP PUSH1 0x1 ADD SWAP1 JUMP JUMPDEST PUSH4 0x4E487B71 PUSH1 0xE0 SHL PUSH1 0x0 MSTORE PUSH1 0x41 PUSH1 0x4 MSTORE PUSH1 0x24 PUSH1 0x0 REVERT JUMPDEST PUSH1 0x1F DUP3 GT ISZERO PUSH2 0x15D0 JUMPI PUSH1 0x0 DUP2 PUSH1 0x0 MSTORE PUSH1 0x20 PUSH1 0x0 KECCAK256 PUSH1 0x1F DUP6 ADD PUSH1 0x5 SHR DUP2 ADD PUSH1 0x20 DUP7 LT ISZERO PUSH2 0x15AD JUMPI POP DUP1 JUMPDEST PUSH1 0x1F DUP6 ADD PUSH1 0x5 SHR DUP3 ADD SWAP2 POP JUMPDEST DUP2 DUP2 LT ISZERO PUSH2 0x15CC JUMPI DUP3 DUP2 SSTORE PUSH1 0x1 ADD PUSH2 0x15B9 JUMP JUMPDEST POP POP POP JUMPDEST POP POP POP JUMP JUMPDEST DUP2 MLOAD PUSH8 0xFFFFFFFFFFFFFFFF DUP2 GT ISZERO PUSH2 0x15EF JUMPI PUSH2 0x15EF PUSH2 0x156E JUMP JUMPDEST PUSH2 0x1603 DUP2 PUSH2 0x15FD DUP5 SLOAD PUSH2 0x13FF JUMP JUMPDEST DUP5 PUSH2 0x1584 JUMP JUMPDEST PUSH1 0x20 DUP1 PUSH1 0x1F DUP4 GT PUSH1 0x1 DUP2 EQ PUSH2 0x1638 JUMPI PUSH1 0x0 DUP5 ISZERO PUSH2 0x1620 JUMPI POP DUP6 DUP4 ADD MLOAD JUMPDEST PUSH1 0x0 NOT PUSH1 0x3 DUP7 SWAP1 SHL SHR NOT AND PUSH1 0x1 DUP6 SWAP1 SHL OR DUP6 SSTORE PUSH2 0x15CC JUMP JUMPDEST PUSH1 0x0 DUP6 DUP2 MSTORE PUSH1 0x20 DUP2 KECCAK256 PUSH1 0x1F NOT DUP7 AND SWAP2 JUMPDEST DUP3 DUP2 LT ISZERO PUSH2 0x1667 JUMPI DUP9 DUP7 ADD MLOAD DUP3 SSTORE SWAP5 DUP5 ADD SWAP5 PUSH1 0x1 SWAP1 SWAP2 ADD SWAP1 DUP5 ADD PUSH2 0x1648 JUMP JUMPDEST POP DUP6 DUP3 LT ISZERO PUSH2 0x1685 JUMPI DUP8 DUP6 ADD MLOAD PUSH1 0x0 NOT PUSH1 0x3 DUP9 SWAP1 SHL PUSH1 0xF8 AND SHR NOT AND DUP2 SSTORE JUMPDEST POP POP POP POP POP PUSH1 0x1 SWAP1 DUP2 SHL ADD SWAP1 SSTORE POP JUMP JUMPDEST PUSH1 0x60 DUP2 MSTORE DUP4 PUSH1 0x60 DUP3 ADD MSTORE DUP4 DUP6 PUSH1 0x80 DUP4 ADD CALLDATACOPY PUSH1 0x0 PUSH1 0x80 DUP6 DUP4 ADD ADD MSTORE PUSH1 0x0 PUSH1 0x80 PUSH1 0x1F NOT PUSH1 0x1F DUP8 ADD AND DUP4 ADD ADD SWAP1 POP DUP4 PUSH1 0x20 DUP4 ADD MSTORE DUP3 PUSH1 0x40 DUP4 ADD MSTORE SWAP6 SWAP5 POP POP POP POP POP JUMP INVALID LOG2 PUSH5 0x6970667358 0x22 SLT KECCAK256 DUP12 0xE7 0xE 0x2C LOG2 SWAP15 LOG4 0xD5 LOG1 EXTCODEHASH TSTORE 0x4D 0xD5 SIGNEXTEND PUSH21 0xA83CA2DB5E3D008370043CEA725F1D55FC64736F6C PUSH4 0x43000818 STOP CALLER LOG2 PUSH5 0x6970667358 0x22 SLT KECCAK256 0xDF 0xD5 0x4B PUSH32 0x9140F8550EFFFA23FB7ECB7AB76336A2CFA507B91B2BD3539DEAF78564736F6C PUSH4 0x43000818 STOP CALLER "},"methodIdentifiers":{"communities(uint256)":"e590b56a","communityCount()":"aee84613","createCommunity(string,uint256,uint256)":"deabf274","getSpaceAddress(string)":"278018fa","spaceByIdStr(string)":"a3e53424"}}}}}