{
  "_format": "hh-sol-artifact-1",
  "contractName": "GovernanceSpace",
  "sourceName": "contracts/GovernanceSpace.sol",
  "abi": [
    {
      "inputs": [
        {
          "internalType": "address",
          "name": "_owner",
          "type": "address"
        },
        {
          "internalType": "string",
          "name": "_communityId",
          "type": "string"
        },
        {
          "internalType": "uint256",
          "name": "_quorumPercent",
          "type": "uint256"
        },
        {
          "internalType": "uint256",
          "name": "_voteDurationSecs",
          "type": "uint256"
        }
      ],
      "stateMutability": "nonpayable",
      "type": "constructor"
    },
    {
      "anonymous": false,
      "inputs": [
        {
          "indexed": true,
          "internalType": "address",
          "name": "admin",
          "type": "address"
        }
      ],
      "name": "AdminAdded",
      "type": "event"
    },
    {
      "anonymous": false,
      "inputs": [
        {
          "indexed": true,
          "internalType": "address",
          "name": "member",
          "type": "address"
        }
      ],
      "name": "MemberAdded",
      "type": "event"
    },
    {
      "anonymous": false,
      "inputs": [
        {
          "indexed": true,
          "internalType": "address",
          "name": "member",
          "type": "address"
        }
      ],
      "name": "MemberRemoved",
      "type": "event"
    },
    {
      "anonymous": false,
      "inputs": [
        {
          "indexed": true,
          "internalType": "uint256",
          "name": "proposalId",
          "type": "uint256"
        },
        {
          "indexed": false,
          "internalType": "enum GovernanceSpace.ProposalStatus",
          "name": "status",
          "type": "uint8"
        },
        {
          "indexed": false,
          "internalType": "uint256",
          "name": "forVotes",
          "type": "uint256"
        },
        {
          "indexed": false,
          "internalType": "uint256",
          "name": "againstVotes",
          "type": "uint256"
        },
        {
          "indexed": false,
          "internalType": "uint256",
          "name": "abstainVotes",
          "type": "uint256"
        }
      ],
      "name": "ProposalClosed",
      "type": "event"
    },
    {
      "anonymous": false,
      "inputs": [
        {
          "indexed": true,
          "internalType": "uint256",
          "name": "proposalId",
          "type": "uint256"
        },
        {
          "indexed": true,
          "internalType": "address",
          "name": "proposer",
          "type": "address"
        },
        {
          "indexed": false,
          "internalType": "string",
          "name": "metadataURI",
          "type": "string"
        },
        {
          "indexed": false,
          "internalType": "uint256",
          "name": "startTime",
          "type": "uint256"
        },
        {
          "indexed": false,
          "internalType": "uint256",
          "name": "endTime",
          "type": "uint256"
        }
      ],
      "name": "ProposalCreated",
      "type": "event"
    },
    {
      "anonymous": false,
      "inputs": [
        {
          "indexed": true,
          "internalType": "uint256",
          "name": "proposalId",
          "type": "uint256"
        },
        {
          "indexed": true,
          "internalType": "address",
          "name": "voter",
          "type": "address"
        },
        {
          "indexed": false,
          "internalType": "enum GovernanceSpace.VoteOption",
          "name": "option",
          "type": "uint8"
        }
      ],
      "name": "VoteCast",
      "type": "event"
    },
    {
      "inputs": [
        {
          "internalType": "address",
          "name": "_admin",
          "type": "address"
        }
      ],
      "name": "addAdmin",
      "outputs": [],
      "stateMutability": "nonpayable",
      "type": "function"
    },
    {
      "inputs": [
        {
          "internalType": "address",
          "name": "",
          "type": "address"
        }
      ],
      "name": "admins",
      "outputs": [
        {
          "internalType": "bool",
          "name": "",
          "type": "bool"
        }
      ],
      "stateMutability": "view",
      "type": "function"
    },
    {
      "inputs": [
        {
          "internalType": "uint256",
          "name": "proposalId",
          "type": "uint256"
        }
      ],
      "name": "closeProposal",
      "outputs": [],
      "stateMutability": "nonpayable",
      "type": "function"
    },
    {
      "inputs": [],
      "name": "communityId",
      "outputs": [
        {
          "internalType": "string",
          "name": "",
          "type": "string"
        }
      ],
      "stateMutability": "view",
      "type": "function"
    },
    {
      "inputs": [
        {
          "internalType": "string",
          "name": "metadataURI",
          "type": "string"
        },
        {
          "internalType": "uint256",
          "name": "startTime",
          "type": "uint256"
        },
        {
          "internalType": "uint256",
          "name": "endTime",
          "type": "uint256"
        }
      ],
      "name": "createProposal",
      "outputs": [
        {
          "internalType": "uint256",
          "name": "",
          "type": "uint256"
        }
      ],
      "stateMutability": "nonpayable",
      "type": "function"
    },
    {
      "inputs": [
        {
          "internalType": "uint256",
          "name": "proposalId",
          "type": "uint256"
        }
      ],
      "name": "getProposal",
      "outputs": [
        {
          "components": [
            {
              "internalType": "uint256",
              "name": "id",
              "type": "uint256"
            },
            {
              "internalType": "address",
              "name": "proposer",
              "type": "address"
            },
            {
              "internalType": "string",
              "name": "metadataURI",
              "type": "string"
            },
            {
              "internalType": "uint256",
              "name": "startTime",
              "type": "uint256"
            },
            {
              "internalType": "uint256",
              "name": "endTime",
              "type": "uint256"
            },
            {
              "internalType": "uint256",
              "name": "forVotes",
              "type": "uint256"
            },
            {
              "internalType": "uint256",
              "name": "againstVotes",
              "type": "uint256"
            },
            {
              "internalType": "uint256",
              "name": "abstainVotes",
              "type": "uint256"
            },
            {
              "internalType": "enum GovernanceSpace.ProposalStatus",
              "name": "status",
              "type": "uint8"
            },
            {
              "internalType": "bool",
              "name": "closed",
              "type": "bool"
            }
          ],
          "internalType": "struct GovernanceSpace.Proposal",
          "name": "",
          "type": "tuple"
        }
      ],
      "stateMutability": "view",
      "type": "function"
    },
    {
      "inputs": [
        {
          "internalType": "uint256",
          "name": "proposalId",
          "type": "uint256"
        },
        {
          "internalType": "address",
          "name": "voter",
          "type": "address"
        }
      ],
      "name": "getVote",
      "outputs": [
        {
          "internalType": "enum GovernanceSpace.VoteOption",
          "name": "",
          "type": "uint8"
        }
      ],
      "stateMutability": "view",
      "type": "function"
    },
    {
      "inputs": [],
      "name": "join",
      "outputs": [],
      "stateMutability": "nonpayable",
      "type": "function"
    },
    {
      "inputs": [],
      "name": "memberCount",
      "outputs": [
        {
          "internalType": "uint256",
          "name": "",
          "type": "uint256"
        }
      ],
      "stateMutability": "view",
      "type": "function"
    },
    {
      "inputs": [
        {
          "internalType": "address",
          "name": "",
          "type": "address"
        }
      ],
      "name": "members",
      "outputs": [
        {
          "internalType": "bool",
          "name": "",
          "type": "bool"
        }
      ],
      "stateMutability": "view",
      "type": "function"
    },
    {
      "inputs": [],
      "name": "owner",
      "outputs": [
        {
          "internalType": "address",
          "name": "",
          "type": "address"
        }
      ],
      "stateMutability": "view",
      "type": "function"
    },
    {
      "inputs": [],
      "name": "proposalCount",
      "outputs": [
        {
          "internalType": "uint256",
          "name": "",
          "type": "uint256"
        }
      ],
      "stateMutability": "view",
      "type": "function"
    },
    {
      "inputs": [
        {
          "internalType": "uint256",
          "name": "",
          "type": "uint256"
        }
      ],
      "name": "proposals",
      "outputs": [
        {
          "internalType": "uint256",
          "name": "id",
          "type": "uint256"
        },
        {
          "internalType": "address",
          "name": "proposer",
          "type": "address"
        },
        {
          "internalType": "string",
          "name": "metadataURI",
          "type": "string"
        },
        {
          "internalType": "uint256",
          "name": "startTime",
          "type": "uint256"
        },
        {
          "internalType": "uint256",
          "name": "endTime",
          "type": "uint256"
        },
        {
          "internalType": "uint256",
          "name": "forVotes",
          "type": "uint256"
        },
        {
          "internalType": "uint256",
          "name": "againstVotes",
          "type": "uint256"
        },
        {
          "internalType": "uint256",
          "name": "abstainVotes",
          "type": "uint256"
        },
        {
          "internalType": "enum GovernanceSpace.ProposalStatus",
          "name": "status",
          "type": "uint8"
        },
        {
          "internalType": "bool",
          "name": "closed",
          "type": "bool"
        }
      ],
      "stateMutability": "view",
      "type": "function"
    },
    {
      "inputs": [],
      "name": "quorumPercent",
      "outputs": [
        {
          "internalType": "uint256",
          "name": "",
          "type": "uint256"
        }
      ],
      "stateMutability": "view",
      "type": "function"
    },
    {
      "inputs": [
        {
          "internalType": "address",
          "name": "_member",
          "type": "address"
        }
      ],
      "name": "removeMember",
      "outputs": [],
      "stateMutability": "nonpayable",
      "type": "function"
    },
    {
      "inputs": [
        {
          "internalType": "uint256",
          "name": "proposalId",
          "type": "uint256"
        },
        {
          "internalType": "uint8",
          "name": "option",
          "type": "uint8"
        }
      ],
      "name": "vote",
      "outputs": [],
      "stateMutability": "nonpayable",
      "type": "function"
    },
    {
      "inputs": [],
      "name": "voteDurationSecs",
      "outputs": [
        {
          "internalType": "uint256",
          "name": "",
          "type": "uint256"
        }
      ],
      "stateMutability": "view",
      "type": "function"
    },
    {
      "inputs": [
        {
          "internalType": "uint256",
          "name": "",
          "type": "uint256"
        },
        {
          "internalType": "address",
          "name": "",
          "type": "address"
        }
      ],
      "name": "votes",
      "outputs": [
        {
          "internalType": "enum GovernanceSpace.VoteOption",
          "name": "",
          "type": "uint8"
        }
      ],
      "stateMutability": "view",
      "type": "function"
    }
  ],
  "bytecode": "0x60806040523480156200001157600080fd5b5060405162001a9438038062001a94833981016040819052620000349162000116565b60648211156200008a5760405162461bcd60e51b815260206004820152601d60248201527f476f7665726e616e636553706163653a2071756f72756d203e20313030000000604482015260640160405180910390fd5b600080546001600160a01b0319166001600160a01b0386161790556001620000b38482620002ad565b50600291909155600355506001600160a01b031660009081526007602090815260408083208054600160ff1991821681179092556008909352922080549091168217905560095562000379565b634e487b7160e01b600052604160045260246000fd5b600080600080608085870312156200012d57600080fd5b84516001600160a01b03811681146200014557600080fd5b602086810151919550906001600160401b03808211156200016557600080fd5b818801915088601f8301126200017a57600080fd5b8151818111156200018f576200018f62000100565b604051601f8201601f19908116603f01168101908382118183101715620001ba57620001ba62000100565b816040528281528b86848701011115620001d357600080fd5b600093505b82841015620001f75784840186015181850187015292850192620001d8565b6000928101909501919091525050506040860151606090960151949790965092505050565b600181811c908216806200023157607f821691505b6020821081036200025257634e487b7160e01b600052602260045260246000fd5b50919050565b601f821115620002a8576000816000526020600020601f850160051c81016020861015620002835750805b601f850160051c820191505b81811015620002a4578281556001016200028f565b5050505b505050565b81516001600160401b03811115620002c957620002c962000100565b620002e181620002da84546200021c565b8462000258565b602080601f831160018114620003195760008415620003005750858301515b600019600386901b1c1916600185901b178555620002a4565b600085815260208120601f198616915b828110156200034a5788860151825594840194600190910190840162000329565b5085821015620003695787850151600019600388901b60f8161c191681555b5050505050600190811b01905550565b61170b80620003896000396000f3fe608060405234801561001057600080fd5b50600436106101165760003560e01c80637f50861a116100a2578063bc3f931f11610071578063bc3f931f1461026c578063c7f758a81461028c578063d23254b4146102ac578063da35c664146102da578063f81cbd26146102e257600080fd5b80637f50861a146102115780638da5cb5b14610226578063943e821614610251578063b688a3631461026457600080fd5b806311aee380116100e957806311aee380146101a857806322e2e12d146101bf578063429b62e5146101d257806366dd7bed146101f557806370480275146101fe57600080fd5b8063013cf08b1461011b5780630386a0161461014d57806308ae4b0c146101625780630b1ca49a14610195575b600080fd5b61012e610129366004611103565b6102eb565b6040516101449a999897969594939291906111a3565b60405180910390f35b61016061015b366004611103565b6103d3565b005b610185610170366004611233565b60076020526000908152604090205460ff1681565b6040519015158152602001610144565b6101606101a3366004611233565b6105c4565b6101b160095481565b604051908152602001610144565b6101b16101cd366004611255565b61074e565b6101856101e0366004611233565b60086020526000908152604090205460ff1681565b6101b160035481565b61016061020c366004611233565b6109c9565b610219610ac1565b60405161014491906112d4565b600054610239906001600160a01b031681565b6040516001600160a01b039091168152602001610144565b61016061025f3660046112e7565b610b4f565b610160610ea2565b61027f61027a36600461131d565b610f14565b6040516101449190611349565b61029f61029a366004611103565b610f41565b604051610144919061135c565b61027f6102ba36600461131d565b600660209081526000928352604080842090915290825290205460ff1681565b6004546101b1565b6101b160025481565b60056020526000908152604090208054600182015460028301805492936001600160a01b039092169261031d906113ff565b80601f0160208091040260200160405190810160405280929190818152602001828054610349906113ff565b80156103965780601f1061036b57610100808354040283529160200191610396565b820191906000526020600020905b81548152906001019060200180831161037957829003601f168201915b5050506003840154600485015460058601546006870154600788015460089098015496979396929550909350919060ff808216916101009004168a565b6000818152600560205260408120805490910361040b5760405162461bcd60e51b815260040161040290611439565b60405180910390fd5b6008810154610100900460ff16156104655760405162461bcd60e51b815260206004820152601f60248201527f476f7665726e616e636553706163653a20616c726561647920636c6f736564006044820152606401610402565b806004015442116104b85760405162461bcd60e51b815260206004820152601d60248201527f476f7665726e616e636553706163653a207374696c6c206163746976650000006044820152606401610402565b60088101805461ff001916610100179055600781015460068201546005830154600092916104e591611492565b6104ef9190611492565b90506000606460025460095461050591906114a5565b61050f91906114bc565b905080821015610535576008830180546003919060ff19166001835b021790555061056a565b82600601548360050154111561055a576008830180546001919060ff1916828061052b565b60088301805460ff191660021790555b600883015460058401546006850154600786015460405188947fa6c824972b5b7a11c878ada39cf95ecab08f2938bbed74ac52e835ffe928248e946105b69460ff9092169390926114de565b60405180910390a250505050565b6000546001600160a01b03163314806105ec57503360009081526008602052604090205460ff165b6106385760405162461bcd60e51b815260206004820152601a60248201527f476f7665726e616e636553706163653a206e6f742061646d696e0000000000006044820152606401610402565b6000546001600160a01b03908116908216036106a25760405162461bcd60e51b8152602060048201526024808201527f476f7665726e616e636553706163653a2063616e6e6f742072656d6f7665206f6044820152633bb732b960e11b6064820152608401610402565b6001600160a01b03811660009081526007602052604090205460ff161561074b576001600160a01b0381166000908152600760209081526040808320805460ff1990811690915560089092529091208054909116905560095415610716576009805490600061071083611507565b91905055505b6040516001600160a01b038216907f6e76fb4c77256006d9c38ec7d82b45a8c8f3c27b1d6766fffc42dfb8de68449290600090a25b50565b3360009081526007602052604081205460ff1661077d5760405162461bcd60e51b81526004016104029061151e565b6000831561078b578361078d565b425b90506000831561079d57836107aa565b6003546107aa9083611492565b90508181116108075760405162461bcd60e51b8152602060048201526024808201527f476f7665726e616e636553706163653a20696e76616c69642074696d652077696044820152636e646f7760e01b6064820152608401610402565b600060046000815461081890611555565b9190508190559050604051806101400160405280828152602001336001600160a01b0316815260200189898080601f01602080910402602001604051908101604052809392919081815260200183838082843760009201829052509385525050506020820186905260408201859052606082018190526080820181905260a0820181905260c0909101908152600060209182018190528381526005825260409081902083518155918301516001830180546001600160a01b0319166001600160a01b0390921691909117905582015160028201906108f690826115d5565b50606082015181600301556080820151816004015560a0820151816005015560c0820151816006015560e082015181600701556101008201518160080160006101000a81548160ff0219169083600381111561095457610954611162565b02179055506101209190910151600890910180549115156101000261ff0019909216919091179055604051339082907f6c98a8c940418b35614f0cd02412d5c9606faff474cbb6cdd6640ba5d1a9f06b906109b6908c908c9089908990611695565b60405180910390a3979650505050505050565b6000546001600160a01b03163314806109f157503360009081526008602052604090205460ff165b610a3d5760405162461bcd60e51b815260206004820152601a60248201527f476f7665726e616e636553706163653a206e6f742061646d696e0000000000006044820152606401610402565b6001600160a01b03811660009081526007602052604090205460ff16610a755760405162461bcd60e51b81526004016104029061151e565b6001600160a01b038116600081815260086020526040808220805460ff19166001179055517f44d6d25963f097ad14f29f06854a01f575648a1ef82f30e562ccd3889717e3399190a250565b60018054610ace906113ff565b80601f0160208091040260200160405190810160405280929190818152602001828054610afa906113ff565b8015610b475780601f10610b1c57610100808354040283529160200191610b47565b820191906000526020600020905b815481529060010190602001808311610b2a57829003601f168201915b505050505081565b3360009081526007602052604090205460ff16610b7e5760405162461bcd60e51b81526004016104029061151e565b60018160ff1610158015610b96575060038160ff1611155b610be25760405162461bcd60e51b815260206004820152601f60248201527f476f7665726e616e636553706163653a20696e76616c6964206f7074696f6e006044820152606401610402565b60008281526005602052604081208054909103610c115760405162461bcd60e51b815260040161040290611439565b6008810154610100900460ff1615610c6b5760405162461bcd60e51b815260206004820152601e60248201527f476f7665726e616e636553706163653a20766f74696e6720636c6f73656400006044820152606401610402565b8060030154421015610cbf5760405162461bcd60e51b815260206004820152601c60248201527f476f7665726e616e636553706163653a206e6f742073746172746564000000006044820152606401610402565b8060040154421115610d135760405162461bcd60e51b815260206004820152601d60248201527f476f7665726e616e636553706163653a20766f74696e6720656e6465640000006044820152606401610402565b600083815260066020908152604080832033845290915281205460ff166003811115610d4157610d41611162565b14610d8e5760405162461bcd60e51b815260206004820152601e60248201527f476f7665726e616e636553706163653a20616c726561647920766f74656400006044820152606401610402565b60008260ff166003811115610da557610da5611162565b600085815260066020908152604080832033845290915290208054919250829160ff19166001836003811115610ddd57610ddd611162565b02179055506001816003811115610df657610df6611162565b03610e1757600582018054906000610e0d83611555565b9190505550610e5a565b6002816003811115610e2b57610e2b611162565b03610e4257600682018054906000610e0d83611555565b600782018054906000610e5483611555565b91905055505b336001600160a01b0316847feba4866100b822f0f391e610e7edfab790b9e8766c0012733c26b2f1858e8dd783604051610e949190611349565b60405180910390a350505050565b3360009081526007602052604090205460ff16610f1257336000908152600760205260408120805460ff191660011790556009805491610ee183611555565b909155505060405133907fb251eb052afc73ffd02ffe85ad79990a8b3fed60d76dbc2fa2fdd7123dffd91490600090a25b565b60008281526006602090815260408083206001600160a01b038516845290915290205460ff165b92915050565b610f49611096565b6000828152600560209081526040918290208251610140810184528154815260018201546001600160a01b0316928101929092526002810180549293919291840191610f94906113ff565b80601f0160208091040260200160405190810160405280929190818152602001828054610fc0906113ff565b801561100d5780601f10610fe25761010080835404028352916020019161100d565b820191906000526020600020905b815481529060010190602001808311610ff057829003601f168201915b50505091835250506003828101546020830152600483015460408301526005830154606083015260068301546080830152600783015460a0830152600883015460c09092019160ff169081111561106657611066611162565b600381111561107757611077611162565b815260089190910154610100900460ff16151560209091015292915050565b6040518061014001604052806000815260200160006001600160a01b03168152602001606081526020016000815260200160008152602001600081526020016000815260200160008152602001600060038111156110f6576110f6611162565b8152600060209091015290565b60006020828403121561111557600080fd5b5035919050565b6000815180845260005b8181101561114257602081850181015186830182015201611126565b506000602082860101526020601f19601f83011685010191505092915050565b634e487b7160e01b600052602160045260246000fd5b6004811061074b57634e487b7160e01b600052602160045260246000fd5b61119f81611178565b9052565b8a81526001600160a01b038a166020820152610140604082018190526000906111ce8382018c61111c565b9150508860608301528760808301528660a08301528560c08301528460e08301526111f884611178565b836101008301528215156101208301529b9a5050505050505050505050565b80356001600160a01b038116811461122e57600080fd5b919050565b60006020828403121561124557600080fd5b61124e82611217565b9392505050565b6000806000806060858703121561126b57600080fd5b843567ffffffffffffffff8082111561128357600080fd5b818701915087601f83011261129757600080fd5b8135818111156112a657600080fd5b8860208285010111156112b857600080fd5b6020928301999098509187013596604001359550909350505050565b60208152600061124e602083018461111c565b600080604083850312156112fa57600080fd5b82359150602083013560ff8116811461131257600080fd5b809150509250929050565b6000806040838503121561133057600080fd5b8235915061134060208401611217565b90509250929050565b6020810161135683611178565b91905290565b60208152815160208201526000602083015161138360408401826001600160a01b03169052565b5060408301516101408060608501526113a061016085018361111c565b915060608501516080850152608085015160a085015260a085015160c085015260c085015160e085015260e08501516101008181870152808701519150506101206113ed81870183611196565b90950151151593019290925250919050565b600181811c9082168061141357607f821691505b60208210810361143357634e487b7160e01b600052602260045260246000fd5b50919050565b60208082526023908201527f476f7665726e616e636553706163653a2070726f706f73616c206e6f7420666f6040820152621d5b9960ea1b606082015260800190565b634e487b7160e01b600052601160045260246000fd5b80820180821115610f3b57610f3b61147c565b8082028115828204841417610f3b57610f3b61147c565b6000826114d957634e487b7160e01b600052601260045260246000fd5b500490565b608081016114eb86611178565b9481526020810193909352604083019190915260609091015290565b6000816115165761151661147c565b506000190190565b6020808252601d908201527f476f7665726e616e636553706163653a206e6f742061206d656d626572000000604082015260600190565b6000600182016115675761156761147c565b5060010190565b634e487b7160e01b600052604160045260246000fd5b601f8211156115d0576000816000526020600020601f850160051c810160208610156115ad5750805b601f850160051c820191505b818110156115cc578281556001016115b9565b5050505b505050565b815167ffffffffffffffff8111156115ef576115ef61156e565b611603816115fd84546113ff565b84611584565b602080601f83116001811461163857600084156116205750858301515b600019600386901b1c1916600185901b1785556115cc565b600085815260208120601f198616915b8281101561166757888601518255948401946001909101908401611648565b50858210156116855787850151600019600388901b60f8161c191681555b5050505050600190811b01905550565b606081528360608201528385608083013760006080858301015260006080601f19601f87011683010190508360208301528260408301529594505050505056fea26469706673582212208be70e2ca29ea4d5a13f5d4dd50b74a83ca2db5e3d008370043cea725f1d55fc64736f6c63430008180033",
  "linkReferences": {},
  "deployedLinkReferences": {}
}